{"abi":[{"type":"constructor","inputs":[{"name":"_endpoint","type":"address","internalType":"address"},{"name":"_remoteChianIds","type":"uint256[]","internalType":"uint256[]"},{"name":"_remoteLzReadSupportedChainIds","type":"uint256[]","internalType":"uint256[]"}],"stateMutability":"nonpayable"},{"type":"function","name":"READ_CHANNEL","inputs":[],"outputs":[{"name":"","type":"uint32","internalType":"uint32"}],"stateMutability":"view"},{"type":"function","name":"READ_CHANNEL_EID_THRESHOLD","inputs":[],"outputs":[{"name":"","type":"uint32","internalType":"uint32"}],"stateMutability":"view"},{"type":"function","name":"READ_MSG_TYPE","inputs":[],"outputs":[{"name":"","type":"uint16","internalType":"uint16"}],"stateMutability":"view"},{"type":"function","name":"allowInitializePath","inputs":[{"name":"origin","type":"tuple","internalType":"struct Origin","components":[{"name":"srcEid","type":"uint32","internalType":"uint32"},{"name":"sender","type":"bytes32","internalType":"bytes32"},{"name":"nonce","type":"uint64","internalType":"uint64"}]}],"outputs":[{"name":"","type":"bool","internalType":"bool"}],"stateMutability":"view"},{"type":"function","name":"changeGovernor","inputs":[{"name":"newGovernor","type":"address","internalType":"address"}],"outputs":[],"stateMutability":"nonpayable"},{"type":"function","name":"changeVotingMachines","inputs":[{"name":"newVotingMachines","type":"address[]","internalType":"address[]"}],"outputs":[],"stateMutability":"nonpayable"},{"type":"function","name":"combineOptions","inputs":[{"name":"_eid","type":"uint32","internalType":"uint32"},{"name":"_msgType","type":"uint16","internalType":"uint16"},{"name":"_extraOptions","type":"bytes","internalType":"bytes"}],"outputs":[{"name":"","type":"bytes","internalType":"bytes"}],"stateMutability":"view"},{"type":"function","name":"endpoint","inputs":[],"outputs":[{"name":"","type":"address","internalType":"contract ILayerZeroEndpointV2"}],"stateMutability":"view"},{"type":"function","name":"enforcedOptions","inputs":[{"name":"eid","type":"uint32","internalType":"uint32"},{"name":"msgType","type":"uint16","internalType":"uint16"}],"outputs":[{"name":"enforcedOption","type":"bytes","internalType":"bytes"}],"stateMutability":"view"},{"type":"function","name":"finalizeProposalVotes","inputs":[{"name":"proposalId","type":"bytes32","internalType":"bytes32"},{"name":"extraOptions","type":"bytes","internalType":"bytes"}],"outputs":[],"stateMutability":"payable"},{"type":"function","name":"governor","inputs":[],"outputs":[{"name":"","type":"address","internalType":"address"}],"stateMutability":"view"},{"type":"function","name":"isComposeMsgSender","inputs":[{"name":"","type":"tuple","internalType":"struct Origin","components":[{"name":"srcEid","type":"uint32","internalType":"uint32"},{"name":"sender","type":"bytes32","internalType":"bytes32"},{"name":"nonce","type":"uint64","internalType":"uint64"}]},{"name":"","type":"bytes","internalType":"bytes"},{"name":"_sender","type":"address","internalType":"address"}],"outputs":[{"name":"","type":"bool","internalType":"bool"}],"stateMutability":"view"},{"type":"function","name":"lzReceive","inputs":[{"name":"_origin","type":"tuple","internalType":"struct Origin","components":[{"name":"srcEid","type":"uint32","internalType":"uint32"},{"name":"sender","type":"bytes32","internalType":"bytes32"},{"name":"nonce","type":"uint64","internalType":"uint64"}]},{"name":"_guid","type":"bytes32","internalType":"bytes32"},{"name":"_message","type":"bytes","internalType":"bytes"},{"name":"_executor","type":"address","internalType":"address"},{"name":"_extraData","type":"bytes","internalType":"bytes"}],"outputs":[],"stateMutability":"payable"},{"type":"function","name":"lzReduce","inputs":[{"name":"","type":"bytes","internalType":"bytes"},{"name":"_responses","type":"bytes[]","internalType":"bytes[]"}],"outputs":[{"name":"","type":"bytes","internalType":"bytes"}],"stateMutability":"pure"},{"type":"function","name":"nextNonce","inputs":[{"name":"","type":"uint32","internalType":"uint32"},{"name":"","type":"bytes32","internalType":"bytes32"}],"outputs":[{"name":"nonce","type":"uint64","internalType":"uint64"}],"stateMutability":"view"},{"type":"function","name":"numChains","inputs":[],"outputs":[{"name":"","type":"uint256","internalType":"uint256"}],"stateMutability":"view"},{"type":"function","name":"numLzReadSupportedChains","inputs":[],"outputs":[{"name":"","type":"uint256","internalType":"uint256"}],"stateMutability":"view"},{"type":"function","name":"oAppVersion","inputs":[],"outputs":[{"name":"senderVersion","type":"uint64","internalType":"uint64"},{"name":"receiverVersion","type":"uint64","internalType":"uint64"}],"stateMutability":"pure"},{"type":"function","name":"owner","inputs":[],"outputs":[{"name":"","type":"address","internalType":"address"}],"stateMutability":"view"},{"type":"function","name":"peers","inputs":[{"name":"eid","type":"uint32","internalType":"uint32"}],"outputs":[{"name":"peer","type":"bytes32","internalType":"bytes32"}],"stateMutability":"view"},{"type":"function","name":"pendingVoteCounts","inputs":[{"name":"","type":"bytes32","internalType":"bytes32"}],"outputs":[{"name":"","type":"bytes32","internalType":"bytes32"}],"stateMutability":"view"},{"type":"function","name":"remoteChainIds","inputs":[{"name":"","type":"uint256","internalType":"uint256"}],"outputs":[{"name":"","type":"uint32","internalType":"uint32"}],"stateMutability":"view"},{"type":"function","name":"remoteLzReadSupportedChainIds","inputs":[{"name":"","type":"uint256","internalType":"uint256"}],"outputs":[{"name":"","type":"uint32","internalType":"uint32"}],"stateMutability":"view"},{"type":"function","name":"renounceOwnership","inputs":[],"outputs":[],"stateMutability":"nonpayable"},{"type":"function","name":"sendProposalDetails","inputs":[{"name":"proposalId","type":"bytes32","internalType":"bytes32"},{"name":"startTime","type":"uint256","internalType":"uint256"},{"name":"endTime","type":"uint256","internalType":"uint256"},{"name":"options","type":"bytes","internalType":"bytes"}],"outputs":[],"stateMutability":"payable"},{"type":"function","name":"setDelegate","inputs":[{"name":"_delegate","type":"address","internalType":"address"}],"outputs":[],"stateMutability":"nonpayable"},{"type":"function","name":"setEnforcedOptions","inputs":[{"name":"_enforcedOptions","type":"tuple[]","internalType":"struct EnforcedOptionParam[]","components":[{"name":"eid","type":"uint32","internalType":"uint32"},{"name":"msgType","type":"uint16","internalType":"uint16"},{"name":"options","type":"bytes","internalType":"bytes"}]}],"outputs":[],"stateMutability":"nonpayable"},{"type":"function","name":"setPeer","inputs":[{"name":"_eid","type":"uint32","internalType":"uint32"},{"name":"_peer","type":"bytes32","internalType":"bytes32"}],"outputs":[],"stateMutability":"nonpayable"},{"type":"function","name":"setReadChannel","inputs":[{"name":"_channelId","type":"uint32","internalType":"uint32"},{"name":"_active","type":"bool","internalType":"bool"}],"outputs":[],"stateMutability":"nonpayable"},{"type":"function","name":"transferOwnership","inputs":[{"name":"newOwner","type":"address","internalType":"address"}],"outputs":[],"stateMutability":"nonpayable"},{"type":"function","name":"votingMachines","inputs":[{"name":"","type":"uint256","internalType":"uint256"}],"outputs":[{"name":"","type":"address","internalType":"address"}],"stateMutability":"view"},{"type":"event","name":"EnforcedOptionSet","inputs":[{"name":"_enforcedOptions","type":"tuple[]","indexed":false,"internalType":"struct EnforcedOptionParam[]","components":[{"name":"eid","type":"uint32","internalType":"uint32"},{"name":"msgType","type":"uint16","internalType":"uint16"},{"name":"options","type":"bytes","internalType":"bytes"}]}],"anonymous":false},{"type":"event","name":"GovernorUpdated","inputs":[{"name":"governor","type":"address","indexed":true,"internalType":"address"}],"anonymous":false},{"type":"event","name":"LZProposalFinalizationInitiated","inputs":[{"name":"proposalId","type":"bytes32","indexed":true,"internalType":"bytes32"},{"name":"guid","type":"bytes32","indexed":true,"internalType":"bytes32"}],"anonymous":false},{"type":"event","name":"LZProposed","inputs":[{"name":"proposalId","type":"bytes32","indexed":true,"internalType":"bytes32"},{"name":"startTime","type":"uint256","indexed":false,"internalType":"uint256"},{"name":"endTime","type":"uint256","indexed":false,"internalType":"uint256"}],"anonymous":false},{"type":"event","name":"LZTotalNumVotesCounted","inputs":[{"name":"proposalId","type":"bytes32","indexed":true,"internalType":"bytes32"},{"name":"totalNumVotes","type":"uint256","indexed":false,"internalType":"uint256"}],"anonymous":false},{"type":"event","name":"OwnershipTransferred","inputs":[{"name":"previousOwner","type":"address","indexed":true,"internalType":"address"},{"name":"newOwner","type":"address","indexed":true,"internalType":"address"}],"anonymous":false},{"type":"event","name":"PeerSet","inputs":[{"name":"eid","type":"uint32","indexed":false,"internalType":"uint32"},{"name":"peer","type":"bytes32","indexed":false,"internalType":"bytes32"}],"anonymous":false},{"type":"event","name":"VotingMachinesUpdated","inputs":[{"name":"votingMachines","type":"address[]","indexed":false,"internalType":"address[]"}],"anonymous":false},{"type":"error","name":"InvalidDelegate","inputs":[]},{"type":"error","name":"InvalidEndpointCall","inputs":[]},{"type":"error","name":"InvalidOptions","inputs":[{"name":"options","type":"bytes","internalType":"bytes"}]},{"type":"error","name":"LzTokenUnavailable","inputs":[]},{"type":"error","name":"NoPeer","inputs":[{"name":"eid","type":"uint32","internalType":"uint32"}]},{"type":"error","name":"NotEnoughNative","inputs":[{"name":"msgValue","type":"uint256","internalType":"uint256"}]},{"type":"error","name":"OnlyEndpoint","inputs":[{"name":"addr","type":"address","internalType":"address"}]},{"type":"error","name":"OnlyPeer","inputs":[{"name":"eid","type":"uint32","internalType":"uint32"},{"name":"sender","type":"bytes32","internalType":"bytes32"}]},{"type":"error","name":"OwnableInvalidOwner","inputs":[{"name":"owner","type":"address","internalType":"address"}]},{"type":"error","name":"OwnableUnauthorizedAccount","inputs":[{"name":"account","type":"address","internalType":"address"}]},{"type":"error","name":"SafeCastOverflowedUintDowncast","inputs":[{"name":"bits","type":"uint8","internalType":"uint8"},{"name":"value","type":"uint256","internalType":"uint256"}]},{"type":"error","name":"SafeERC20FailedOperation","inputs":[{"name":"token","type":"address","internalType":"address"}]}],"bytecode":{"object":"0x60e060405234801561000f575f5ffd5b5060405161384138038061384183398101604081905261002e91610548565b823381818181808061005a57604051631e4fbdf760e01b81525f60048201526024015b60405180910390fd5b61006381610336565b506001600160a01b03808316608052811661009157604051632d618d8160e21b815260040160405180910390fd5b60805160405163ca5eb5e160e01b81526001600160a01b0383811660048301529091169063ca5eb5e1906024015f604051808303815f87803b1580156100d5575f5ffd5b505af11580156100e7573d5f5f3e3d5ffd5b505050505050505050505f8251116101355760405162461bcd60e51b81526020600482015260116024820152705a65726f206c656e67746820617272617960781b6044820152606401610051565b81516001600160401b0381111561014e5761014e610498565b604051908082528060200260200182016040528015610177578160200160208202803683370190505b50805161018c91600491602090910190610385565b5081516001600160401b038111156101a6576101a6610498565b6040519080825280602002602001820160405280156101cf578160200160208202803683370190505b5080516101e491600391602090910190610431565b5080516001600160401b038111156101fe576101fe610498565b604051908082528060200260200182016040528015610227578160200160208202803683370190505b50805161023c91600591602090910190610385565b505f5b82518110156102b15782818151811061025a5761025a6105ca565b602002602001015160048281548110610275576102756105ca565b905f5260205f2090600891828204019190066004026101000a81548163ffffffff021916908363ffffffff16021790555080600101905061023f565b505f5b8151811015610326578181815181106102cf576102cf6105ca565b6020026020010151600582815481106102ea576102ea6105ca565b905f5260205f2090600891828204019190066004026101000a81548163ffffffff021916908363ffffffff1602179055508060010190506102b4565b50905160a0525160c052506105de565b5f80546001600160a01b038381166001600160a01b0319831681178455604051919092169283917f8be0079c531659141344cd1fd0a4f28419497f9722a3daafe3b4186f6b6457e09190a35050565b828054828255905f5260205f2090600701600890048101928215610421579160200282015f5b838211156103ef57835183826101000a81548163ffffffff021916908363ffffffff16021790555092602001926004016020816003010492830192600103026103ab565b801561041f5782816101000a81549063ffffffff02191690556004016020816003010492830192600103026103ef565b505b5061042d929150610484565b5090565b828054828255905f5260205f20908101928215610421579160200282015b8281111561042157825182546001600160a01b0319166001600160a01b0390911617825560209092019160019091019061044f565b5b8082111561042d575f8155600101610485565b634e487b7160e01b5f52604160045260245ffd5b5f82601f8301126104bb575f5ffd5b81516001600160401b038111156104d4576104d4610498565b604051600582901b90603f8201601f191681016001600160401b038111828210171561050257610502610498565b60405291825260208185018101929081018684111561051f575f5ffd5b6020860192505b8383101561053e578251815260209283019201610526565b5095945050505050565b5f5f5f6060848603121561055a575f5ffd5b83516001600160a01b0381168114610570575f5ffd5b60208501519093506001600160401b0381111561058b575f5ffd5b610597868287016104ac565b604086015190935090506001600160401b038111156105b4575f5ffd5b6105c0868287016104ac565b9150509250925092565b634e487b7160e01b5f52603260045260245ffd5b60805160a05160c0516131de6106635f395f8181610290015281816118a0015261196401525f818161057b015281816108170152818161087e015281816109660152610e2d01525f81816103670152818161065101528181611131015281816115a3015281816116aa01528181611a7f01528181611ce80152611ddf01526131de5ff3fe6080604052600436106101d0575f3560e01c806399b4446c116100fd578063ca5eb5e111610092578063eba1cf0811610062578063eba1cf08146105d3578063f0a9e481146105f2578063f2fde38b14610611578063ff7bd03d14610630575f5ffd5b8063ca5eb5e11461054b578063d3fb3e9f1461056a578063e4c0aaf41461059d578063e8feb143146105bc575f5ffd5b8063b98bd070116100cd578063b98bd070146104bc578063bb0b6a53146104db578063bc70b35414610506578063c1bd92e314610525575f5ffd5b806399b4446c1461044c5780639eb51f5b1461046b578063a4079e911461048a578063b9315fd31461049d575f5ffd5b8063533999f61161017357806374969c411161014357806374969c411461039d5780637d25a05e146103bc57806382413eac146103f45780638da5cb5b14610423575f5ffd5b8063533999f6146102ff5780635535d4611461032a5780635e280f1114610356578063715018a614610389575f5ffd5b80633400288b116101ae5780633400288b1461026057806334cba4b91461027f5780633859d937146102c057806347b157c1146102ec575f5ffd5b80630c340a24146101d457806313137d651461022a57806317442b701461023f575b5f5ffd5b3480156101df575f5ffd5b506006546102009073ffffffffffffffffffffffffffffffffffffffff1681565b60405173ffffffffffffffffffffffffffffffffffffffff90911681526020015b60405180910390f35b61023d610238366004612231565b61064f565b005b34801561024a575f5ffd5b5060408051600181526002602082015201610221565b34801561026b575f5ffd5b5061023d61027a3660046122de565b61074e565b34801561028a575f5ffd5b506102b27f000000000000000000000000000000000000000000000000000000000000000081565b604051908152602001610221565b3480156102cb575f5ffd5b506102d763ffffffff81565b60405163ffffffff9091168152602001610221565b61023d6102fa366004612308565b610764565b34801561030a575f5ffd5b506102b2610319366004612364565b60076020525f908152604090205481565b348015610335575f5ffd5b50610349610344366004612391565b610a84565b6040516102219190612410565b348015610361575f5ffd5b506102007f000000000000000000000000000000000000000000000000000000000000000081565b348015610394575f5ffd5b5061023d610b26565b3480156103a8575f5ffd5b506102006103b7366004612364565b610b39565b3480156103c7575f5ffd5b506103db6103d63660046122de565b610b6e565b60405167ffffffffffffffff9091168152602001610221565b3480156103ff575f5ffd5b5061041361040e366004612429565b610b76565b6040519015158152602001610221565b34801561042e575f5ffd5b505f5473ffffffffffffffffffffffffffffffffffffffff16610200565b348015610457575f5ffd5b506102d7610466366004612364565b610b98565b348015610476575f5ffd5b506102d7610485366004612364565b610bcf565b61023d61049836600461248c565b610bde565b3480156104a8575f5ffd5b5061023d6104b736600461259c565b610d3d565b3480156104c7575f5ffd5b5061023d6104d636600461267c565b610f10565b3480156104e6575f5ffd5b506102b26104f53660046126bb565b60016020525f908152604090205481565b348015610511575f5ffd5b506103496105203660046126d6565b610f2a565b348015610530575f5ffd5b506105385f81565b60405161ffff9091168152602001610221565b348015610556575f5ffd5b5061023d610565366004612735565b6110e4565b348015610575575f5ffd5b506102b27f000000000000000000000000000000000000000000000000000000000000000081565b3480156105a8575f5ffd5b5061023d6105b7366004612735565b61118b565b3480156105c7575f5ffd5b506102d763fffff9be81565b3480156105de575f5ffd5b506103496105ed366004612750565b6111f9565b3480156105fd575f5ffd5b5061023d61060c3660046127b0565b611276565b34801561061c575f5ffd5b5061023d61062b366004612735565b611293565b34801561063b575f5ffd5b5061041361064a3660046127eb565b6112f6565b7f000000000000000000000000000000000000000000000000000000000000000073ffffffffffffffffffffffffffffffffffffffff1633146106c5576040517f91ac5e4f0000000000000000000000000000000000000000000000000000000081523360048201526024015b60405180910390fd5b602087018035906106df906106da908a6126bb565b61132a565b14610736576106f160208801886126bb565b6040517fc26bebcc00000000000000000000000000000000000000000000000000000000815263ffffffff9091166004820152602088013560248201526044016106bc565b6107458787878787878761137e565b50505050505050565b6107566114e8565b610760828261153a565b5050565b60065473ffffffffffffffffffffffffffffffffffffffff1633146107e5576040517f08c379a000000000000000000000000000000000000000000000000000000000815260206004820152600d60248201527f4f6e6c7920676f7665726e6f720000000000000000000000000000000000000060448201526064016106bc565b6040805160208101879052908101859052606081018490525f9060800160405160208183030381529060405290505f5f7f000000000000000000000000000000000000000000000000000000000000000067ffffffffffffffff81111561084e5761084e6124d4565b604051908082528060200260200182016040528015610877578160200160208202803683370190505b5090505f5b7f0000000000000000000000000000000000000000000000000000000000000000811015610955575f61091b600483815481106108bb576108bb612805565b905f5260205f2090600891828204019190066004029054906101000a900463ffffffff168689898080601f0160208091040260200160405190810160405280939291908181526020018383808284375f920182905250925061158e915050565b9050805f015183838151811061093357610933612805565b6020908102919091010152805161094a9085612832565b93505060010161087c565b5081341015610962575f5ffd5b5f5b7f0000000000000000000000000000000000000000000000000000000000000000811015610a3e57610a35600482815481106109a2576109a2612805565b905f5260205f2090600891828204019190066004029054906101000a900463ffffffff168588888080601f0160208091040260200160405190810160405280939291908181526020018383808284375f9201919091525050604080518082019091528851909250829150889088908110610a1e57610a1e612805565b602002602001015181526020015f81525032611679565b50600101610964565b50604080518881526020810188905289917fc920f84c691358d16129e2a3aff49d34531f225fd4a6fe3fc04e73d9a2bb0708910160405180910390a25050505050505050565b600260209081525f928352604080842090915290825290208054610aa79061286a565b80601f0160208091040260200160405190810160405280929190818152602001828054610ad39061286a565b8015610b1e5780601f10610af557610100808354040283529160200191610b1e565b820191905f5260205f20905b815481529060010190602001808311610b0157829003601f168201915b505050505081565b610b2e6114e8565b610b375f61178c565b565b60038181548110610b48575f80fd5b5f9182526020909120015473ffffffffffffffffffffffffffffffffffffffff16905081565b5f5b92915050565b73ffffffffffffffffffffffffffffffffffffffff811630145b949350505050565b60058181548110610ba7575f80fd5b905f5260205f209060089182820401919006600402915054906101000a900463ffffffff1681565b60048181548110610ba7575f80fd5b60065473ffffffffffffffffffffffffffffffffffffffff163314610c5f576040517f08c379a000000000000000000000000000000000000000000000000000000000815260206004820152600d60248201527f4f6e6c7920676f7665726e6f720000000000000000000000000000000000000060448201526064016106bc565b5f610c6984611800565b90505f610cb063ffffffff8386868080601f0160208091040260200160405190810160405280939291908181526020018383808284375f920182905250925061158e915050565b8051909150341015610cc0575f5ffd5b5f610cf563ffffffff84610cda63ffffffff5f8a8a610f2a565b60405180604001604052803481526020015f81525032611679565b80515f90815260076020526040808220899055825190519293509188917f267dba7bccaf377b95b12abf8b2c3adcd3e16766a5f38f1af004ed642492cfec91a3505050505050565b5f5473ffffffffffffffffffffffffffffffffffffffff163314610dbd576040517f08c379a000000000000000000000000000000000000000000000000000000000815260206004820152600a60248201527f4f776e6572206f6e6c790000000000000000000000000000000000000000000060448201526064016106bc565b600354815114610e29576040517f08c379a000000000000000000000000000000000000000000000000000000000815260206004820152601260248201527f57726f6e67206172726179206c656e677468000000000000000000000000000060448201526064016106bc565b5f5b7f0000000000000000000000000000000000000000000000000000000000000000811015610ed557818181518110610e6557610e65612805565b602002602001015160038281548110610e8057610e80612805565b5f91825260209091200180547fffffffffffffffffffffffff00000000000000000000000000000000000000001673ffffffffffffffffffffffffffffffffffffffff92909216919091179055600101610e2b565b507f08e76d3f651925d6b5216c2ab137ef3cce175001fe4c83a770ea0b9fd91d756581604051610f0591906128b5565b60405180910390a150565b610f186114e8565b610760610f25828461290d565b611b5f565b63ffffffff84165f90815260026020908152604080832061ffff87168452909152812080546060929190610f5d9061286a565b80601f0160208091040260200160405190810160405280929190818152602001828054610f899061286a565b8015610fd45780601f10610fab57610100808354040283529160200191610fd4565b820191905f5260205f20905b815481529060010190602001808311610fb757829003601f168201915b5050505050905080515f036110225783838080601f0160208091040260200160405190810160405280939291908181526020018383808284375f92019190915250929450610b909350505050565b5f839003611031579050610b90565b600283106110ae5761107784848080601f0160208091040260200160405190810160405280939291908181526020018383808284375f92019190915250611c6092505050565b806110858460028188612a48565b60405160200161109793929190612a86565b604051602081830303815290604052915050610b90565b83836040517f9a6d49cd0000000000000000000000000000000000000000000000000000000081526004016106bc929190612aa4565b6110ec6114e8565b6040517fca5eb5e100000000000000000000000000000000000000000000000000000000815273ffffffffffffffffffffffffffffffffffffffff82811660048301527f0000000000000000000000000000000000000000000000000000000000000000169063ca5eb5e1906024015f604051808303815f87803b158015611172575f5ffd5b505af1158015611184573d5f5f3e3d5ffd5b5050505050565b600680547fffffffffffffffffffffffff00000000000000000000000000000000000000001673ffffffffffffffffffffffffffffffffffffffff83169081179091556040517f386c8d5fb4be6c928b7de4c7ae0a4b2ad0d2b2a7edad65d9f0af9ba255e51219905f90a250565b60605f805b8381101561124f575f85858381811061121957611219612805565b905060200281019061122b9190612af0565b8101906112389190612364565b90506112448184612832565b9250506001016111fe565b50604080516020810183905201604051602081830303815290604052915050949350505050565b61127e6114e8565b610760828261128d575f61153a565b3061153a565b61129b6114e8565b73ffffffffffffffffffffffffffffffffffffffff81166112ea576040517f1e4fbdf70000000000000000000000000000000000000000000000000000000081525f60048201526024016106bc565b6112f38161178c565b50565b5f60208201803590600190839061130d90866126bb565b63ffffffff16815260208101919091526040015f20541492915050565b63ffffffff81165f9081526001602052604081205480610b70576040517ff6ff4fb700000000000000000000000000000000000000000000000000000000815263ffffffff841660048201526024016106bc565b63fffff9be61139060208901896126bb565b63ffffffff16116113fd576040517f08c379a000000000000000000000000000000000000000000000000000000000815260206004820152601560248201527f4c5a2052656164207265636569766573206f6e6c79000000000000000000000060448201526064016106bc565b5f61140a85870187612364565b5f88815260076020526040908190205460065491517f5bfe514100000000000000000000000000000000000000000000000000000000815260048101829052602481018490529293509173ffffffffffffffffffffffffffffffffffffffff90911690635bfe5141906044015f604051808303815f87803b15801561148d575f5ffd5b505af115801561149f573d5f5f3e3d5ffd5b50505050807fcd4e27e613c4d46d0215ce195b2c44c8271eb6566b599eb7b91cf3245f5ccdbd836040516114d591815260200190565b60405180910390a2505050505050505050565b5f5473ffffffffffffffffffffffffffffffffffffffff163314610b37576040517f118cdaa70000000000000000000000000000000000000000000000000000000081523360048201526024016106bc565b63ffffffff82165f81815260016020908152604091829020849055815192835282018390527f238399d427b947898edb290f5ff0f9109849b1c3ba196a42e35f00c50a54b98b910160405180910390a15050565b604080518082019091525f80825260208201527f000000000000000000000000000000000000000000000000000000000000000073ffffffffffffffffffffffffffffffffffffffff1663ddc28c586040518060a001604052808863ffffffff1681526020016115fd8961132a565b8152602001878152602001868152602001851515815250306040518363ffffffff1660e01b8152600401611632929190612b51565b6040805180830381865afa15801561164c573d5f5f3e3d5ffd5b505050506040513d601f19601f820116820180604052508101906116709190612c41565b95945050505050565b611681612174565b5f61168e845f0151611ca5565b6020850151909150156116a8576116a88460200151611ce5565b7f000000000000000000000000000000000000000000000000000000000000000073ffffffffffffffffffffffffffffffffffffffff16632637a450826040518060a001604052808b63ffffffff1681526020016117058c61132a565b81526020018a81526020018981526020015f8960200151111515815250866040518463ffffffff1660e01b8152600401611740929190612b51565b60806040518083038185885af115801561175c573d5f5f3e3d5ffd5b50505050506040513d601f19601f820116820180604052508101906117819190612c5b565b979650505050505050565b5f805473ffffffffffffffffffffffffffffffffffffffff8381167fffffffffffffffffffffffff0000000000000000000000000000000000000000831681178455604051919092169283917f8be0079c531659141344cd1fd0a4f28419497f9722a3daafe3b4186f6b6457e09190a35050565b60605f63d94a406160e01b8360405160240161181e91815260200190565b604080517fffffffffffffffffffffffffffffffffffffffffffffffffffffffffffffffe08184030181529190526020810180517bffffffffffffffffffffffffffffffffffffffffffffffffffffffff167fffffffff000000000000000000000000000000000000000000000000000000009093169290921790915290505f7f000000000000000000000000000000000000000000000000000000000000000067ffffffffffffffff8111156118d7576118d76124d4565b60405190808252806020026020018201604052801561195d57816020015b6040805160e0810182525f808252602080830182905292820181905260608083018290526080830182905260a083019190915260c082015282527fffffffffffffffffffffffffffffffffffffffffffffffffffffffffffffffff9092019101816118f55790505b5090505f5b7f0000000000000000000000000000000000000000000000000000000000000000811015611a66576040518060e001604052805f61ffff168152602001600583815481106119b2576119b2612805565b905f5260205f2090600891828204019190066004029054906101000a900463ffffffff1663ffffffff1681526020015f151581526020014267ffffffffffffffff168152602001600f61ffff16815260200160038381548110611a1757611a17612805565b5f918252602091829020015473ffffffffffffffffffffffffffffffffffffffff168252018490528251839083908110611a5357611a53612805565b6020908102919091010152600101611962565b505f6040518060c00160405280600160ff1681526020017f000000000000000000000000000000000000000000000000000000000000000073ffffffffffffffffffffffffffffffffffffffff1663416ecebf6040518163ffffffff1660e01b8152600401602060405180830381865afa158015611ae6573d5f5f3e3d5ffd5b505050506040513d601f19601f82011682018060405250810190611b0a9190612cb1565b63ffffffff1681526020015f151581526020014267ffffffffffffffff168152602001600f61ffff1681526020013073ffffffffffffffffffffffffffffffffffffffff1681525090506116705f8383611e04565b5f5b8151811015611c3057611b90828281518110611b7f57611b7f612805565b602002602001015160400151611c60565b818181518110611ba257611ba2612805565b60200260200101516040015160025f848481518110611bc357611bc3612805565b60200260200101515f015163ffffffff1663ffffffff1681526020019081526020015f205f848481518110611bfa57611bfa612805565b60200260200101516020015161ffff1661ffff1681526020019081526020015f209081611c279190612d15565b50600101611b61565b507fbe4864a8e820971c0247f5992e2da559595f7bf076a21cb5928d443d2a13b67481604051610f059190612e2c565b600281015161ffff811660031461076057816040517f9a6d49cd0000000000000000000000000000000000000000000000000000000081526004016106bc9190612410565b5f813414611ce1576040517f9f7041200000000000000000000000000000000000000000000000000000000081523460048201526024016106bc565b5090565b5f7f000000000000000000000000000000000000000000000000000000000000000073ffffffffffffffffffffffffffffffffffffffff1663e4fe1d946040518163ffffffff1660e01b8152600401602060405180830381865afa158015611d4f573d5f5f3e3d5ffd5b505050506040513d601f19601f82011682018060405250810190611d739190612ed8565b905073ffffffffffffffffffffffffffffffffffffffff8116611dc2576040517f5373352a00000000000000000000000000000000000000000000000000000000815260040160405180910390fd5b61076073ffffffffffffffffffffffffffffffffffffffff8216337f000000000000000000000000000000000000000000000000000000000000000085611e2e565b60605f611e118585611ec9565b9050826020015163ffffffff165f14610b90576116708184611f8e565b6040805173ffffffffffffffffffffffffffffffffffffffff85811660248301528416604482015260648082018490528251808303909101815260849091019091526020810180517bffffffffffffffffffffffffffffffffffffffffffffffffffffffff167f23b872dd00000000000000000000000000000000000000000000000000000000179052611ec3908590611fe0565b50505050565b60605f600184611ed9855161207f565b6040517fffff00000000000000000000000000000000000000000000000000000000000060f094851b8116602083015292841b83166022820152921b166024820152602601604080517fffffffffffffffffffffffffffffffffffffffffffffffffffffffffffffffe081840301815291905290505f5b8351811015611f8657611f7c82858381518110611f6f57611f6f612805565b60200260200101516120c6565b9150600101611f50565b509392505050565b606082600180845f015185602001518660400151876060015188608001518960a00151604051602001611fc999989796959493929190612ef3565b604051602081830303815290604052905092915050565b5f5f60205f8451602086015f885af180611fff576040513d5f823e3d81fd5b50505f513d91508115612016578060011415612030565b73ffffffffffffffffffffffffffffffffffffffff84163b155b15611ec3576040517f5274afe700000000000000000000000000000000000000000000000000000000815273ffffffffffffffffffffffffffffffffffffffff851660048201526024016106bc565b5f61ffff821115611ce1576040517f6dfcc65000000000000000000000000000000000000000000000000000000000815260106004820152602481018390526044016106bc565b60605f836001845f015160016120ec8760c001515160236120e79190612832565b61207f565b60208089015160405161210497969594939201613051565b604080517fffffffffffffffffffffffffffffffffffffffffffffffffffffffffffffffe0818403018152828252908501516060860151608087015160a088015160c089015194965061215c958795906020016130fa565b60405160208183030381529060405291505092915050565b60405180606001604052805f81526020015f67ffffffffffffffff1681526020016121b060405180604001604052805f81526020015f81525090565b905290565b5f606082840312156121c5575f5ffd5b50919050565b5f5f83601f8401126121db575f5ffd5b50813567ffffffffffffffff8111156121f2575f5ffd5b602083019150836020828501011115612209575f5ffd5b9250929050565b73ffffffffffffffffffffffffffffffffffffffff811681146112f3575f5ffd5b5f5f5f5f5f5f5f60e0888a031215612247575f5ffd5b61225189896121b5565b965060608801359550608088013567ffffffffffffffff811115612273575f5ffd5b61227f8a828b016121cb565b90965094505060a088013561229381612210565b925060c088013567ffffffffffffffff8111156122ae575f5ffd5b6122ba8a828b016121cb565b989b979a50959850939692959293505050565b63ffffffff811681146112f3575f5ffd5b5f5f604083850312156122ef575f5ffd5b82356122fa816122cd565b946020939093013593505050565b5f5f5f5f5f6080868803121561231c575f5ffd5b853594506020860135935060408601359250606086013567ffffffffffffffff811115612347575f5ffd5b612353888289016121cb565b969995985093965092949392505050565b5f60208284031215612374575f5ffd5b5035919050565b803561ffff8116811461238c575f5ffd5b919050565b5f5f604083850312156123a2575f5ffd5b82356123ad816122cd565b91506123bb6020840161237b565b90509250929050565b5f81518084528060208401602086015e5f6020828601015260207fffffffffffffffffffffffffffffffffffffffffffffffffffffffffffffffe0601f83011685010191505092915050565b602081525f61242260208301846123c4565b9392505050565b5f5f5f5f60a0858703121561243c575f5ffd5b61244686866121b5565b9350606085013567ffffffffffffffff811115612461575f5ffd5b61246d878288016121cb565b909450925050608085013561248181612210565b939692955090935050565b5f5f5f6040848603121561249e575f5ffd5b83359250602084013567ffffffffffffffff8111156124bb575f5ffd5b6124c7868287016121cb565b9497909650939450505050565b7f4e487b71000000000000000000000000000000000000000000000000000000005f52604160045260245ffd5b6040516060810167ffffffffffffffff81118282101715612524576125246124d4565b60405290565b604051601f82017fffffffffffffffffffffffffffffffffffffffffffffffffffffffffffffffe016810167ffffffffffffffff81118282101715612571576125716124d4565b604052919050565b5f67ffffffffffffffff821115612592576125926124d4565b5060051b60200190565b5f602082840312156125ac575f5ffd5b813567ffffffffffffffff8111156125c2575f5ffd5b8201601f810184136125d2575f5ffd5b80356125e56125e082612579565b61252a565b8082825260208201915060208360051b850101925086831115612606575f5ffd5b6020840193505b8284101561263157833561262081612210565b82526020938401939091019061260d565b9695505050505050565b5f5f83601f84011261264b575f5ffd5b50813567ffffffffffffffff811115612662575f5ffd5b6020830191508360208260051b8501011115612209575f5ffd5b5f5f6020838503121561268d575f5ffd5b823567ffffffffffffffff8111156126a3575f5ffd5b6126af8582860161263b565b90969095509350505050565b5f602082840312156126cb575f5ffd5b8135612422816122cd565b5f5f5f5f606085870312156126e9575f5ffd5b84356126f4816122cd565b93506127026020860161237b565b9250604085013567ffffffffffffffff81111561271d575f5ffd5b612729878288016121cb565b95989497509550505050565b5f60208284031215612745575f5ffd5b813561242281612210565b5f5f5f5f60408587031215612763575f5ffd5b843567ffffffffffffffff811115612779575f5ffd5b612785878288016121cb565b909550935050602085013567ffffffffffffffff8111156127a4575f5ffd5b6127298782880161263b565b5f5f604083850312156127c1575f5ffd5b82356127cc816122cd565b9150602083013580151581146127e0575f5ffd5b809150509250929050565b5f606082840312156127fb575f5ffd5b61242283836121b5565b7f4e487b71000000000000000000000000000000000000000000000000000000005f52603260045260245ffd5b80820180821115610b70577f4e487b71000000000000000000000000000000000000000000000000000000005f52601160045260245ffd5b600181811c9082168061287e57607f821691505b6020821081036121c5577f4e487b71000000000000000000000000000000000000000000000000000000005f52602260045260245ffd5b602080825282518282018190525f918401906040840190835b8181101561290257835173ffffffffffffffffffffffffffffffffffffffff168352602093840193909201916001016128ce565b509095945050505050565b5f61291a6125e084612579565b8381526020810190600585901b840136811115612935575f5ffd5b845b8181101561290257803567ffffffffffffffff811115612955575f5ffd5b86016060368290031215612967575f5ffd5b61296f612501565b813561297a816122cd565b81526129886020830161237b565b6020820152604082013567ffffffffffffffff8111156129a6575f5ffd5b919091019036601f8301126129b9575f5ffd5b813567ffffffffffffffff8111156129d3576129d36124d4565b612a0460207fffffffffffffffffffffffffffffffffffffffffffffffffffffffffffffffe0601f8401160161252a565b818152366020838601011115612a18575f5ffd5b816020850160208301375f6020838301015280604084015250508086525050602084019350602081019050612937565b5f5f85851115612a56575f5ffd5b83861115612a62575f5ffd5b5050820193919092039150565b5f81518060208401855e5f93019283525090919050565b5f612a918286612a6f565b838582375f930192835250909392505050565b60208152816020820152818360408301375f818301604090810191909152601f9092017fffffffffffffffffffffffffffffffffffffffffffffffffffffffffffffffe0160101919050565b5f5f83357fffffffffffffffffffffffffffffffffffffffffffffffffffffffffffffffe1843603018112612b23575f5ffd5b83018035915067ffffffffffffffff821115612b3d575f5ffd5b602001915036819003821315612209575f5ffd5b6040815263ffffffff8351166040820152602083015160608201525f604084015160a06080840152612b8660e08401826123c4565b905060608501517fffffffffffffffffffffffffffffffffffffffffffffffffffffffffffffffc08483030160a0850152612bc182826123c4565b60809690960151151560c085015250505073ffffffffffffffffffffffffffffffffffffffff9190911660209091015290565b5f60408284031215612c04575f5ffd5b6040805190810167ffffffffffffffff81118282101715612c2757612c276124d4565b604052825181526020928301519281019290925250919050565b5f60408284031215612c51575f5ffd5b6124228383612bf4565b5f6080828403128015612c6c575f5ffd5b50612c75612501565b82518152602083015167ffffffffffffffff81168114612c93575f5ffd5b6020820152612ca58460408501612bf4565b60408201529392505050565b5f60208284031215612cc1575f5ffd5b8151612422816122cd565b601f821115612d1057805f5260205f20601f840160051c81016020851015612cf15750805b601f840160051c820191505b81811015611184575f8155600101612cfd565b505050565b815167ffffffffffffffff811115612d2f57612d2f6124d4565b612d4381612d3d845461286a565b84612ccc565b6020601f821160018114612d94575f8315612d5e5750848201515b7fffffffffffffffffffffffffffffffffffffffffffffffffffffffffffffffff600385901b1c1916600184901b178455611184565b5f848152602081207fffffffffffffffffffffffffffffffffffffffffffffffffffffffffffffffe08516915b82811015612de15787850151825560209485019460019092019101612dc1565b5084821015612e1d57868401517fffffffffffffffffffffffffffffffffffffffffffffffffffffffffffffffff600387901b60f8161c191681555b50505050600190811b01905550565b5f602082016020835280845180835260408501915060408160051b8601019250602086015f5b82811015612ecc577fffffffffffffffffffffffffffffffffffffffffffffffffffffffffffffffc0878603018452815163ffffffff815116865261ffff60208201511660208701526040810151905060606040870152612eb660608701826123c4565b9550506020938401939190910190600101612e52565b50929695505050505050565b5f60208284031215612ee8575f5ffd5b815161242281612210565b5f612efe828c612a6f565b7fff000000000000000000000000000000000000000000000000000000000000008b60f81b1681527fffff0000000000000000000000000000000000000000000000000000000000008a60f01b1660018201527fff000000000000000000000000000000000000000000000000000000000000008960f81b1660038201527fffffffff000000000000000000000000000000000000000000000000000000008860e01b16600482015286151560f81b60088201527fffffffffffffffff0000000000000000000000000000000000000000000000008660c01b16600982015261300e601182018660f01b7fffff000000000000000000000000000000000000000000000000000000000000169052565b61303f601382018560601b7fffffffffffffffffffffffffffffffffffffffff000000000000000000000000169052565b6027019b9a5050505050505050505050565b5f61305c8289612a6f565b60f89790971b7fff00000000000000000000000000000000000000000000000000000000000000168752505060f093841b7fffff000000000000000000000000000000000000000000000000000000000000908116600187015292841b83166003860152921b16600583015260e01b7fffffffff00000000000000000000000000000000000000000000000000000000166007820152600b01919050565b5f6131058289612a6f565b87151560f81b81527fffffffffffffffff0000000000000000000000000000000000000000000000008760c01b1660018201527fffff0000000000000000000000000000000000000000000000000000000000008660f01b1660098201527fffffffffffffffffffffffffffffffffffffffff0000000000000000000000008560601b16600b82015261319b601f820185612a6f565b999850505050505050505056fea2646970667358221220728a6791126a193f52404cc773ace62d76065468d618a1cdf23b1f7fc7f938b864736f6c634300081e0033","linkReferences":{}},"methodIdentifiers":{"READ_CHANNEL()":"3859d937","READ_CHANNEL_EID_THRESHOLD()":"e8feb143","READ_MSG_TYPE()":"c1bd92e3","allowInitializePath((uint32,bytes32,uint64))":"ff7bd03d","changeGovernor(address)":"e4c0aaf4","changeVotingMachines(address[])":"b9315fd3","combineOptions(uint32,uint16,bytes)":"bc70b354","endpoint()":"5e280f11","enforcedOptions(uint32,uint16)":"5535d461","finalizeProposalVotes(bytes32,bytes)":"a4079e91","governor()":"0c340a24","isComposeMsgSender((uint32,bytes32,uint64),bytes,address)":"82413eac","lzReceive((uint32,bytes32,uint64),bytes32,bytes,address,bytes)":"13137d65","lzReduce(bytes,bytes[])":"eba1cf08","nextNonce(uint32,bytes32)":"7d25a05e","numChains()":"d3fb3e9f","numLzReadSupportedChains()":"34cba4b9","oAppVersion()":"17442b70","owner()":"8da5cb5b","peers(uint32)":"bb0b6a53","pendingVoteCounts(bytes32)":"533999f6","remoteChainIds(uint256)":"9eb51f5b","remoteLzReadSupportedChainIds(uint256)":"99b4446c","renounceOwnership()":"715018a6","sendProposalDetails(bytes32,uint256,uint256,bytes)":"47b157c1","setDelegate(address)":"ca5eb5e1","setEnforcedOptions((uint32,uint16,bytes)[])":"b98bd070","setPeer(uint32,bytes32)":"3400288b","setReadChannel(uint32,bool)":"f0a9e481","transferOwnership(address)":"f2fde38b","votingMachines(uint256)":"74969c41"},"id":45}