{"abi":[{"type":"constructor","inputs":[{"name":"_token","type":"address","internalType":"contract IVotes"},{"name":"_timelock","type":"address","internalType":"contract TimelockController"},{"name":"_governorRelay","type":"address","internalType":"address"}],"stateMutability":"nonpayable"},{"type":"receive","stateMutability":"payable"},{"type":"function","name":"BALLOT_TYPEHASH","inputs":[],"outputs":[{"name":"","type":"bytes32","internalType":"bytes32"}],"stateMutability":"view"},{"type":"function","name":"CLOCK_MODE","inputs":[],"outputs":[{"name":"","type":"string","internalType":"string"}],"stateMutability":"view"},{"type":"function","name":"COUNTING_MODE","inputs":[],"outputs":[{"name":"","type":"string","internalType":"string"}],"stateMutability":"pure"},{"type":"function","name":"EXTENDED_BALLOT_TYPEHASH","inputs":[],"outputs":[{"name":"","type":"bytes32","internalType":"bytes32"}],"stateMutability":"view"},{"type":"function","name":"cancel","inputs":[{"name":"targets","type":"address[]","internalType":"address[]"},{"name":"values","type":"uint256[]","internalType":"uint256[]"},{"name":"calldatas","type":"bytes[]","internalType":"bytes[]"},{"name":"descriptionHash","type":"bytes32","internalType":"bytes32"}],"outputs":[{"name":"","type":"uint256","internalType":"uint256"}],"stateMutability":"nonpayable"},{"type":"function","name":"castVote","inputs":[{"name":"proposalId","type":"uint256","internalType":"uint256"},{"name":"support","type":"uint8","internalType":"uint8"}],"outputs":[{"name":"","type":"uint256","internalType":"uint256"}],"stateMutability":"nonpayable"},{"type":"function","name":"castVoteBySig","inputs":[{"name":"proposalId","type":"uint256","internalType":"uint256"},{"name":"support","type":"uint8","internalType":"uint8"},{"name":"voter","type":"address","internalType":"address"},{"name":"signature","type":"bytes","internalType":"bytes"}],"outputs":[{"name":"","type":"uint256","internalType":"uint256"}],"stateMutability":"nonpayable"},{"type":"function","name":"castVoteWithReason","inputs":[{"name":"proposalId","type":"uint256","internalType":"uint256"},{"name":"support","type":"uint8","internalType":"uint8"},{"name":"reason","type":"string","internalType":"string"}],"outputs":[{"name":"","type":"uint256","internalType":"uint256"}],"stateMutability":"nonpayable"},{"type":"function","name":"castVoteWithReasonAndParams","inputs":[{"name":"proposalId","type":"uint256","internalType":"uint256"},{"name":"support","type":"uint8","internalType":"uint8"},{"name":"reason","type":"string","internalType":"string"},{"name":"params","type":"bytes","internalType":"bytes"}],"outputs":[{"name":"","type":"uint256","internalType":"uint256"}],"stateMutability":"nonpayable"},{"type":"function","name":"castVoteWithReasonAndParamsBySig","inputs":[{"name":"proposalId","type":"uint256","internalType":"uint256"},{"name":"support","type":"uint8","internalType":"uint8"},{"name":"voter","type":"address","internalType":"address"},{"name":"reason","type":"string","internalType":"string"},{"name":"params","type":"bytes","internalType":"bytes"},{"name":"signature","type":"bytes","internalType":"bytes"}],"outputs":[{"name":"","type":"uint256","internalType":"uint256"}],"stateMutability":"nonpayable"},{"type":"function","name":"clock","inputs":[],"outputs":[{"name":"","type":"uint48","internalType":"uint48"}],"stateMutability":"view"},{"type":"function","name":"eip712Domain","inputs":[],"outputs":[{"name":"fields","type":"bytes1","internalType":"bytes1"},{"name":"name","type":"string","internalType":"string"},{"name":"version","type":"string","internalType":"string"},{"name":"chainId","type":"uint256","internalType":"uint256"},{"name":"verifyingContract","type":"address","internalType":"address"},{"name":"salt","type":"bytes32","internalType":"bytes32"},{"name":"extensions","type":"uint256[]","internalType":"uint256[]"}],"stateMutability":"view"},{"type":"function","name":"execute","inputs":[{"name":"targets","type":"address[]","internalType":"address[]"},{"name":"values","type":"uint256[]","internalType":"uint256[]"},{"name":"calldatas","type":"bytes[]","internalType":"bytes[]"},{"name":"descriptionHash","type":"bytes32","internalType":"bytes32"}],"outputs":[{"name":"","type":"uint256","internalType":"uint256"}],"stateMutability":"payable"},{"type":"function","name":"finalizeProposalVotes","inputs":[{"name":"proposalId","type":"uint256","internalType":"uint256"},{"name":"options","type":"bytes","internalType":"bytes"}],"outputs":[],"stateMutability":"payable"},{"type":"function","name":"getProposalId","inputs":[{"name":"targets","type":"address[]","internalType":"address[]"},{"name":"values","type":"uint256[]","internalType":"uint256[]"},{"name":"calldatas","type":"bytes[]","internalType":"bytes[]"},{"name":"descriptionHash","type":"bytes32","internalType":"bytes32"}],"outputs":[{"name":"","type":"uint256","internalType":"uint256"}],"stateMutability":"view"},{"type":"function","name":"getVotes","inputs":[{"name":"account","type":"address","internalType":"address"},{"name":"timepoint","type":"uint256","internalType":"uint256"}],"outputs":[{"name":"","type":"uint256","internalType":"uint256"}],"stateMutability":"view"},{"type":"function","name":"getVotesWithParams","inputs":[{"name":"account","type":"address","internalType":"address"},{"name":"timepoint","type":"uint256","internalType":"uint256"},{"name":"params","type":"bytes","internalType":"bytes"}],"outputs":[{"name":"","type":"uint256","internalType":"uint256"}],"stateMutability":"view"},{"type":"function","name":"governorRelay","inputs":[],"outputs":[{"name":"","type":"address","internalType":"address"}],"stateMutability":"view"},{"type":"function","name":"hasVoted","inputs":[{"name":"proposalId","type":"uint256","internalType":"uint256"},{"name":"account","type":"address","internalType":"address"}],"outputs":[{"name":"","type":"bool","internalType":"bool"}],"stateMutability":"view"},{"type":"function","name":"hashProposal","inputs":[{"name":"targets","type":"address[]","internalType":"address[]"},{"name":"values","type":"uint256[]","internalType":"uint256[]"},{"name":"calldatas","type":"bytes[]","internalType":"bytes[]"},{"name":"descriptionHash","type":"bytes32","internalType":"bytes32"}],"outputs":[{"name":"","type":"uint256","internalType":"uint256"}],"stateMutability":"pure"},{"type":"function","name":"mapFinalizedProposalIdCounts","inputs":[{"name":"","type":"uint256","internalType":"uint256"}],"outputs":[{"name":"","type":"uint256","internalType":"uint256"}],"stateMutability":"view"},{"type":"function","name":"name","inputs":[],"outputs":[{"name":"","type":"string","internalType":"string"}],"stateMutability":"view"},{"type":"function","name":"nonces","inputs":[{"name":"owner","type":"address","internalType":"address"}],"outputs":[{"name":"","type":"uint256","internalType":"uint256"}],"stateMutability":"view"},{"type":"function","name":"onERC1155BatchReceived","inputs":[{"name":"","type":"address","internalType":"address"},{"name":"","type":"address","internalType":"address"},{"name":"","type":"uint256[]","internalType":"uint256[]"},{"name":"","type":"uint256[]","internalType":"uint256[]"},{"name":"","type":"bytes","internalType":"bytes"}],"outputs":[{"name":"","type":"bytes4","internalType":"bytes4"}],"stateMutability":"nonpayable"},{"type":"function","name":"onERC1155Received","inputs":[{"name":"","type":"address","internalType":"address"},{"name":"","type":"address","internalType":"address"},{"name":"","type":"uint256","internalType":"uint256"},{"name":"","type":"uint256","internalType":"uint256"},{"name":"","type":"bytes","internalType":"bytes"}],"outputs":[{"name":"","type":"bytes4","internalType":"bytes4"}],"stateMutability":"nonpayable"},{"type":"function","name":"onERC721Received","inputs":[{"name":"","type":"address","internalType":"address"},{"name":"","type":"address","internalType":"address"},{"name":"","type":"uint256","internalType":"uint256"},{"name":"","type":"bytes","internalType":"bytes"}],"outputs":[{"name":"","type":"bytes4","internalType":"bytes4"}],"stateMutability":"nonpayable"},{"type":"function","name":"proposalDeadline","inputs":[{"name":"proposalId","type":"uint256","internalType":"uint256"}],"outputs":[{"name":"","type":"uint256","internalType":"uint256"}],"stateMutability":"view"},{"type":"function","name":"proposalEta","inputs":[{"name":"proposalId","type":"uint256","internalType":"uint256"}],"outputs":[{"name":"","type":"uint256","internalType":"uint256"}],"stateMutability":"view"},{"type":"function","name":"proposalNeedsQueuing","inputs":[{"name":"proposalId","type":"uint256","internalType":"uint256"}],"outputs":[{"name":"","type":"bool","internalType":"bool"}],"stateMutability":"view"},{"type":"function","name":"proposalProposer","inputs":[{"name":"proposalId","type":"uint256","internalType":"uint256"}],"outputs":[{"name":"","type":"address","internalType":"address"}],"stateMutability":"view"},{"type":"function","name":"proposalSnapshot","inputs":[{"name":"proposalId","type":"uint256","internalType":"uint256"}],"outputs":[{"name":"","type":"uint256","internalType":"uint256"}],"stateMutability":"view"},{"type":"function","name":"proposalThreshold","inputs":[],"outputs":[{"name":"","type":"uint256","internalType":"uint256"}],"stateMutability":"view"},{"type":"function","name":"proposalVotes","inputs":[{"name":"proposalId","type":"uint256","internalType":"uint256"}],"outputs":[{"name":"","type":"uint256","internalType":"uint256"},{"name":"forVotes","type":"uint256","internalType":"uint256"},{"name":"","type":"uint256","internalType":"uint256"}],"stateMutability":"view"},{"type":"function","name":"propose","inputs":[{"name":"targets","type":"address[]","internalType":"address[]"},{"name":"values","type":"uint256[]","internalType":"uint256[]"},{"name":"calldatas","type":"bytes[]","internalType":"bytes[]"},{"name":"description","type":"string","internalType":"string"},{"name":"options","type":"bytes","internalType":"bytes"}],"outputs":[{"name":"proposalId","type":"uint256","internalType":"uint256"}],"stateMutability":"payable"},{"type":"function","name":"propose","inputs":[{"name":"targets","type":"address[]","internalType":"address[]"},{"name":"values","type":"uint256[]","internalType":"uint256[]"},{"name":"calldatas","type":"bytes[]","internalType":"bytes[]"},{"name":"description","type":"string","internalType":"string"}],"outputs":[{"name":"","type":"uint256","internalType":"uint256"}],"stateMutability":"nonpayable"},{"type":"function","name":"queue","inputs":[{"name":"targets","type":"address[]","internalType":"address[]"},{"name":"values","type":"uint256[]","internalType":"uint256[]"},{"name":"calldatas","type":"bytes[]","internalType":"bytes[]"},{"name":"descriptionHash","type":"bytes32","internalType":"bytes32"}],"outputs":[{"name":"","type":"uint256","internalType":"uint256"}],"stateMutability":"nonpayable"},{"type":"function","name":"quorum","inputs":[{"name":"timepoint","type":"uint256","internalType":"uint256"}],"outputs":[{"name":"","type":"uint256","internalType":"uint256"}],"stateMutability":"view"},{"type":"function","name":"quorumDenominator","inputs":[],"outputs":[{"name":"","type":"uint256","internalType":"uint256"}],"stateMutability":"view"},{"type":"function","name":"quorumNumerator","inputs":[{"name":"timepoint","type":"uint256","internalType":"uint256"}],"outputs":[{"name":"","type":"uint256","internalType":"uint256"}],"stateMutability":"view"},{"type":"function","name":"quorumNumerator","inputs":[],"outputs":[{"name":"","type":"uint256","internalType":"uint256"}],"stateMutability":"view"},{"type":"function","name":"recordFinalizedProposalVotes","inputs":[{"name":"proposalId","type":"uint256","internalType":"uint256"},{"name":"totalNumVotes","type":"uint256","internalType":"uint256"}],"outputs":[],"stateMutability":"nonpayable"},{"type":"function","name":"relay","inputs":[{"name":"target","type":"address","internalType":"address"},{"name":"value","type":"uint256","internalType":"uint256"},{"name":"data","type":"bytes","internalType":"bytes"}],"outputs":[],"stateMutability":"payable"},{"type":"function","name":"state","inputs":[{"name":"proposalId","type":"uint256","internalType":"uint256"}],"outputs":[{"name":"curState","type":"uint8","internalType":"enum IGovernor.ProposalState"}],"stateMutability":"view"},{"type":"function","name":"supportsInterface","inputs":[{"name":"interfaceId","type":"bytes4","internalType":"bytes4"}],"outputs":[{"name":"","type":"bool","internalType":"bool"}],"stateMutability":"view"},{"type":"function","name":"timelock","inputs":[],"outputs":[{"name":"","type":"address","internalType":"address"}],"stateMutability":"view"},{"type":"function","name":"token","inputs":[],"outputs":[{"name":"","type":"address","internalType":"contract IERC5805"}],"stateMutability":"view"},{"type":"function","name":"updateQuorumNumerator","inputs":[{"name":"newQuorumNumerator","type":"uint256","internalType":"uint256"}],"outputs":[],"stateMutability":"nonpayable"},{"type":"function","name":"updateTimelock","inputs":[{"name":"newTimelock","type":"address","internalType":"contract TimelockController"}],"outputs":[],"stateMutability":"nonpayable"},{"type":"function","name":"version","inputs":[],"outputs":[{"name":"","type":"string","internalType":"string"}],"stateMutability":"view"},{"type":"function","name":"votingDelay","inputs":[],"outputs":[{"name":"","type":"uint256","internalType":"uint256"}],"stateMutability":"pure"},{"type":"function","name":"votingPeriod","inputs":[],"outputs":[{"name":"","type":"uint256","internalType":"uint256"}],"stateMutability":"pure"},{"type":"event","name":"EIP712DomainChanged","inputs":[],"anonymous":false},{"type":"event","name":"GovernorRelayUpdated","inputs":[{"name":"newGovernorRelay","type":"address","indexed":true,"internalType":"address"}],"anonymous":false},{"type":"event","name":"ProposalCanceled","inputs":[{"name":"proposalId","type":"uint256","indexed":false,"internalType":"uint256"}],"anonymous":false},{"type":"event","name":"ProposalCreated","inputs":[{"name":"proposalId","type":"uint256","indexed":false,"internalType":"uint256"},{"name":"proposer","type":"address","indexed":false,"internalType":"address"},{"name":"targets","type":"address[]","indexed":false,"internalType":"address[]"},{"name":"values","type":"uint256[]","indexed":false,"internalType":"uint256[]"},{"name":"signatures","type":"string[]","indexed":false,"internalType":"string[]"},{"name":"calldatas","type":"bytes[]","indexed":false,"internalType":"bytes[]"},{"name":"voteStart","type":"uint256","indexed":false,"internalType":"uint256"},{"name":"voteEnd","type":"uint256","indexed":false,"internalType":"uint256"},{"name":"description","type":"string","indexed":false,"internalType":"string"}],"anonymous":false},{"type":"event","name":"ProposalExecuted","inputs":[{"name":"proposalId","type":"uint256","indexed":false,"internalType":"uint256"}],"anonymous":false},{"type":"event","name":"ProposalIdCountsRecorded","inputs":[{"name":"proposalId","type":"uint256","indexed":true,"internalType":"uint256"},{"name":"totalNumVotes","type":"uint256","indexed":false,"internalType":"uint256"}],"anonymous":false},{"type":"event","name":"ProposalQueued","inputs":[{"name":"proposalId","type":"uint256","indexed":false,"internalType":"uint256"},{"name":"etaSeconds","type":"uint256","indexed":false,"internalType":"uint256"}],"anonymous":false},{"type":"event","name":"QuorumNumeratorUpdated","inputs":[{"name":"oldQuorumNumerator","type":"uint256","indexed":false,"internalType":"uint256"},{"name":"newQuorumNumerator","type":"uint256","indexed":false,"internalType":"uint256"}],"anonymous":false},{"type":"event","name":"TimelockChange","inputs":[{"name":"oldTimelock","type":"address","indexed":false,"internalType":"address"},{"name":"newTimelock","type":"address","indexed":false,"internalType":"address"}],"anonymous":false},{"type":"event","name":"VoteCast","inputs":[{"name":"voter","type":"address","indexed":true,"internalType":"address"},{"name":"proposalId","type":"uint256","indexed":false,"internalType":"uint256"},{"name":"support","type":"uint8","indexed":false,"internalType":"uint8"},{"name":"weight","type":"uint256","indexed":false,"internalType":"uint256"},{"name":"reason","type":"string","indexed":false,"internalType":"string"}],"anonymous":false},{"type":"event","name":"VoteCastWithParams","inputs":[{"name":"voter","type":"address","indexed":true,"internalType":"address"},{"name":"proposalId","type":"uint256","indexed":false,"internalType":"uint256"},{"name":"support","type":"uint8","indexed":false,"internalType":"uint8"},{"name":"weight","type":"uint256","indexed":false,"internalType":"uint256"},{"name":"reason","type":"string","indexed":false,"internalType":"string"},{"name":"params","type":"bytes","indexed":false,"internalType":"bytes"}],"anonymous":false},{"type":"error","name":"CheckpointUnorderedInsertion","inputs":[]},{"type":"error","name":"FailedCall","inputs":[]},{"type":"error","name":"GovernorAlreadyCastVote","inputs":[{"name":"voter","type":"address","internalType":"address"}]},{"type":"error","name":"GovernorAlreadyQueuedProposal","inputs":[{"name":"proposalId","type":"uint256","internalType":"uint256"}]},{"type":"error","name":"GovernorDisabledDeposit","inputs":[]},{"type":"error","name":"GovernorInsufficientProposerVotes","inputs":[{"name":"proposer","type":"address","internalType":"address"},{"name":"votes","type":"uint256","internalType":"uint256"},{"name":"threshold","type":"uint256","internalType":"uint256"}]},{"type":"error","name":"GovernorInvalidProposalLength","inputs":[{"name":"targets","type":"uint256","internalType":"uint256"},{"name":"calldatas","type":"uint256","internalType":"uint256"},{"name":"values","type":"uint256","internalType":"uint256"}]},{"type":"error","name":"GovernorInvalidQuorumFraction","inputs":[{"name":"quorumNumerator","type":"uint256","internalType":"uint256"},{"name":"quorumDenominator","type":"uint256","internalType":"uint256"}]},{"type":"error","name":"GovernorInvalidSignature","inputs":[{"name":"voter","type":"address","internalType":"address"}]},{"type":"error","name":"GovernorInvalidVoteParams","inputs":[]},{"type":"error","name":"GovernorInvalidVoteType","inputs":[]},{"type":"error","name":"GovernorInvalidVotingPeriod","inputs":[{"name":"votingPeriod","type":"uint256","internalType":"uint256"}]},{"type":"error","name":"GovernorNonexistentProposal","inputs":[{"name":"proposalId","type":"uint256","internalType":"uint256"}]},{"type":"error","name":"GovernorNotQueuedProposal","inputs":[{"name":"proposalId","type":"uint256","internalType":"uint256"}]},{"type":"error","name":"GovernorOnlyExecutor","inputs":[{"name":"account","type":"address","internalType":"address"}]},{"type":"error","name":"GovernorQueueNotImplemented","inputs":[]},{"type":"error","name":"GovernorRestrictedProposer","inputs":[{"name":"proposer","type":"address","internalType":"address"}]},{"type":"error","name":"GovernorUnableToCancel","inputs":[{"name":"proposalId","type":"uint256","internalType":"uint256"},{"name":"account","type":"address","internalType":"address"}]},{"type":"error","name":"GovernorUnexpectedProposalState","inputs":[{"name":"proposalId","type":"uint256","internalType":"uint256"},{"name":"current","type":"uint8","internalType":"enum IGovernor.ProposalState"},{"name":"expectedStates","type":"bytes32","internalType":"bytes32"}]},{"type":"error","name":"InvalidAccountNonce","inputs":[{"name":"account","type":"address","internalType":"address"},{"name":"currentNonce","type":"uint256","internalType":"uint256"}]},{"type":"error","name":"InvalidShortString","inputs":[]},{"type":"error","name":"SafeCastOverflowedUintDowncast","inputs":[{"name":"bits","type":"uint8","internalType":"uint8"},{"name":"value","type":"uint256","internalType":"uint256"}]},{"type":"error","name":"StringTooLong","inputs":[{"name":"str","type":"string","internalType":"string"}]}],"bytecode":{"object":"0x6101a0604052348015610010575f5ffd5b50604051615f3e380380615f3e83398101604081905261002f916105be565b815f846040518060400160405280600a81526020016926bca3b7bb32b93737b960b11b8152508061006461015660201b60201c565b61006e825f610171565b6101205261007d816001610171565b61014052815160208084019190912060e052815190820120610100524660a05261010960e05161010051604080517f8b73c3c69bb8fe3d512ecc4cf759cc79239f7b179b0ffacaa9a75d522b39400f60208201529081019290925260608201524660808201523060a08201525f9060c00160405160208183030381529060405280519060200120905090565b60805250503060c052600361011e82826106a0565b50506001600160a01b031661016052610136816101a3565b506101408161023d565b506001600160a01b031661018052506107f69050565b6040805180820190915260018152603160f81b602082015290565b5f60208351101561018c57610185836102a6565b905061019d565b8161019784826106a0565b5060ff90505b92915050565b6064808211156101d55760405163243e544560e01b815260048101839052602481018290526044015b60405180910390fd5b5f6101de6102e3565b90506101fd6101eb6102fc565b6101f485610376565b600891906103ad565b505060408051828152602081018590527f0553476bf02ef2726e8ce5ced78d63e26e602e4a2257b1f559418e24b4633997910160405180910390a1505050565b600954604080516001600160a01b03928316815291831660208301527f08f74ea46ef7894f65eabfb5e6e695de773a000b47c529ab559178069b226401910160405180910390a1600980546001600160a01b0319166001600160a01b0392909216919091179055565b5f5f829050601f815111156102d0578260405163305a27a960e01b81526004016101cc919061075a565b80516102db8261078f565b179392505050565b5f6102ee60086103c7565b6001600160d01b0316905090565b5f6103076101605190565b6001600160a01b03166391ddadf46040518163ffffffff1660e01b8152600401602060405180830381865afa925050508015610360575060408051601f3d908101601f1916820190925261035d918101906107b2565b60015b6103715761036c61040f565b905090565b919050565b5f6001600160d01b038211156103a9576040516306dfcc6560e41b815260d06004820152602481018390526044016101cc565b5090565b5f806103ba858585610419565b915091505b935093915050565b80545f908015610406576103ed836103e06001846107d7565b5f91825260209091200190565b54660100000000000090046001600160d01b0316610408565b5f5b9392505050565b5f61036c43610575565b82545f9081908015610518575f610435876103e06001856107d7565b805490915065ffffffffffff80821691660100000000000090046001600160d01b031690881682111561047b57604051632520601d60e01b815260040160405180910390fd5b8765ffffffffffff168265ffffffffffff16036104b757825465ffffffffffff1666010000000000006001600160d01b0389160217835561050a565b6040805180820190915265ffffffffffff808a1682526001600160d01b03808a1660208085019182528d54600181018f555f8f815291909120945191519092166601000000000000029216919091179101555b94508593506103bf92505050565b50506040805180820190915265ffffffffffff80851682526001600160d01b0380851660208085019182528854600181018a555f8a81529182209551925190931666010000000000000291909316179201919091559050816103bf565b5f65ffffffffffff8211156103a9576040516306dfcc6560e41b815260306004820152602481018390526044016101cc565b6001600160a01b03811681146105bb575f5ffd5b50565b5f5f5f606084860312156105d0575f5ffd5b83516105db816105a7565b60208501519093506105ec816105a7565b60408501519092506105fd816105a7565b809150509250925092565b634e487b7160e01b5f52604160045260245ffd5b600181811c9082168061063057607f821691505b60208210810361064e57634e487b7160e01b5f52602260045260245ffd5b50919050565b601f82111561069b57805f5260205f20601f840160051c810160208510156106795750805b601f840160051c820191505b81811015610698575f8155600101610685565b50505b505050565b81516001600160401b038111156106b9576106b9610608565b6106cd816106c7845461061c565b84610654565b6020601f8211600181146106ff575f83156106e85750848201515b5f19600385901b1c1916600184901b178455610698565b5f84815260208120601f198516915b8281101561072e578785015182556020948501946001909201910161070e565b508482101561074b57868401515f19600387901b60f8161c191681555b50505050600190811b01905550565b602081525f82518060208401528060208501604085015e5f604082850101526040601f19601f83011684010191505092915050565b8051602080830151919081101561064e575f1960209190910360031b1b16919050565b5f602082840312156107c2575f5ffd5b815165ffffffffffff81168114610408575f5ffd5b8181038181111561019d57634e487b7160e01b5f52601160045260245ffd5b60805160a05160c05160e05161010051610120516101405161016051610180516156b261088c5f395f8181610aee01528181610fd201528181611562015261178f01525f8181610b3d0152818161139601528181611ae201528181611eb90152612a2001525f6129ed01525f6129c101525f6133c101525f61339901525f6132f401525f61331e01525f61334801526156b25ff3fe608060405260043610610327575f3560e01c80637b3c71d3116101a7578063b58131b0116100e7578063dd4e2ba511610092578063f23a6e611161006d578063f23a6e6114610abe578063f28b5a5714610add578063f8ce560a14610b10578063fc0c546a14610b2f575f5ffd5b8063dd4e2ba514610a27578063deaaa7cc14610a6c578063eb9019d414610a9f575f5ffd5b8063c28bc2fa116100c2578063c28bc2fa146109cb578063c59057e4146109de578063d33219b4146109fd575f5ffd5b8063b58131b01461097b578063bc197c811461098d578063c01f9e37146109ac575f5ffd5b806397c3d33411610152578063a890c9101161012d578063a890c910146108e8578063a8f8a66814610907578063a9a9529414610926578063ab58fb8e14610945575f5ffd5b806397c3d334146108a25780639a802a6d146108b5578063a7713a70146108d4575f5ffd5b806384b0196e1161018257806384b0196e146108315780638ff262e31461085857806391ddadf414610877575f5ffd5b80637b3c71d3146107b25780637d5e81e2146107d15780637ecebe00146107f0575f5ffd5b80633932abb11161027257806354fd4d501161021d5780635b8d0e0d116101f85780635b8d0e0d146107365780635bfe5141146107555780635f398a141461077457806360c4247f14610793575f5ffd5b806354fd4d50146106bf578063567813881461070457806359e4981514610723575f5ffd5b8063452115d61161024d578063452115d6146106525780634bf5d7e914610671578063544ffc9c14610685575f5ffd5b80633932abb1146105be5780633e4f49e6146105d157806343859632146105fd575f5ffd5b8063150b7a02116102d25780632656227d116102ad5780632656227d1461052d5780632d63f693146105405780632fe3e2611461058b575f5ffd5b8063150b7a02146104ab578063160cbed7146104fb5780631db4eead1461051a575f5ffd5b806306f3f9e61161030257806306f3f9e61461040557806306fdde0314610424578063143489d014610445575f5ffd5b806301ffc9a71461038857806302a251a3146103bc57806304430db3146103da575f5ffd5b366103845730610335610b61565b73ffffffffffffffffffffffffffffffffffffffff1614610382576040517fe90a651e00000000000000000000000000000000000000000000000000000000815260040160405180910390fd5b005b5f5ffd5b348015610393575f5ffd5b506103a76103a236600461432e565b610b86565b60405190151581526020015b60405180910390f35b3480156103c7575f5ffd5b50610e105b6040519081526020016103b3565b3480156103e5575f5ffd5b506103cc6103f436600461436d565b600b6020525f908152604090205481565b348015610410575f5ffd5b5061038261041f36600461436d565b610cb6565b34801561042f575f5ffd5b50610438610cca565b6040516103b391906143d0565b348015610450575f5ffd5b5061048661045f36600461436d565b5f9081526004602052604090205473ffffffffffffffffffffffffffffffffffffffff1690565b60405173ffffffffffffffffffffffffffffffffffffffff90911681526020016103b3565b3480156104b6575f5ffd5b506104ca6104c5366004614518565b610d5a565b6040517fffffffff0000000000000000000000000000000000000000000000000000000090911681526020016103b3565b348015610506575f5ffd5b506103cc6105153660046146e1565b610ddb565b6103826105283660046147bc565b610ed9565b6103cc61053b3660046146e1565b611042565b34801561054b575f5ffd5b506103cc61055a36600461436d565b5f9081526004602052604090205474010000000000000000000000000000000000000000900465ffffffffffff1690565b348015610596575f5ffd5b506103cc7f3e83946653575f9a39005e1545185629e92736b7528ab20ca3816f315424a81181565b3480156105c9575f5ffd5b50603c6103cc565b3480156105dc575f5ffd5b506105f06105eb36600461436d565b61122a565b6040516103b3919061486a565b348015610608575f5ffd5b506103a7610617366004614878565b5f82815260076020908152604080832073ffffffffffffffffffffffffffffffffffffffff8516845260030190915290205460ff1692915050565b34801561065d575f5ffd5b506103cc61066c3660046146e1565b61130b565b34801561067c575f5ffd5b50610438611392565b348015610690575f5ffd5b506106a461069f36600461436d565b611478565b604080519384526020840192909252908201526060016103b3565b3480156106ca575f5ffd5b5060408051808201909152600181527f31000000000000000000000000000000000000000000000000000000000000006020820152610438565b34801561070f575f5ffd5b506103cc61071e3660046148b6565b6114b0565b6103cc6107313660046148e0565b6114d7565b348015610741575f5ffd5b506103cc6107503660046149c9565b6115db565b348015610760575f5ffd5b5061038261076f366004614a88565b611777565b34801561077f575f5ffd5b506103cc61078e366004614aa8565b611866565b34801561079e575f5ffd5b506103cc6107ad36600461436d565b6118ae565b3480156107bd575f5ffd5b506103cc6107cc366004614b2b565b6118ba565b3480156107dc575f5ffd5b506103cc6107eb366004614b81565b61190a565b3480156107fb575f5ffd5b506103cc61080a366004614c22565b73ffffffffffffffffffffffffffffffffffffffff165f9081526002602052604090205490565b34801561083c575f5ffd5b50610845611972565b6040516103b39796959493929190614c77565b348015610863575f5ffd5b506103cc610872366004614d0d565b6119d0565b348015610882575f5ffd5b5061088b611adf565b60405165ffffffffffff90911681526020016103b3565b3480156108ad575f5ffd5b5060646103cc565b3480156108c0575f5ffd5b506103cc6108cf366004614d5b565b611b91565b3480156108df575f5ffd5b506103cc611ba7565b3480156108f3575f5ffd5b50610382610902366004614c22565b611bd3565b348015610912575f5ffd5b506103cc6109213660046146e1565b611be4565b348015610931575f5ffd5b506103a761094036600461436d565b611bfa565b348015610950575f5ffd5b506103cc61095f36600461436d565b5f9081526004602052604090206001015465ffffffffffff1690565b348015610986575f5ffd5b505f6103cc565b348015610998575f5ffd5b506104ca6109a7366004614db0565b611c02565b3480156109b7575f5ffd5b506103cc6109c636600461436d565b611c84565b6103826109d9366004614e4a565b611cee565b3480156109e9575f5ffd5b506103cc6109f83660046146e1565b611d77565b348015610a08575f5ffd5b5060095473ffffffffffffffffffffffffffffffffffffffff16610486565b348015610a32575f5ffd5b506040805180820190915260208082527f737570706f72743d627261766f2671756f72756d3d666f722c6162737461696e90820152610438565b348015610a77575f5ffd5b506103cc7ff2aad550cf55f045cb27e9c559f9889fdfb6e6cdaa032301d6ea397784ae51d781565b348015610aaa575f5ffd5b506103cc610ab9366004614e8a565b611dce565b348015610ac9575f5ffd5b506104ca610ad8366004614eb4565b611ded565b348015610ae8575f5ffd5b506104867f000000000000000000000000000000000000000000000000000000000000000081565b348015610b1b575f5ffd5b506103cc610b2a36600461436d565b611e6f565b348015610b3a575f5ffd5b507f0000000000000000000000000000000000000000000000000000000000000000610486565b5f610b8160095473ffffffffffffffffffffffffffffffffffffffff1690565b905090565b5f7fffffffff0000000000000000000000000000000000000000000000000000000082167fcdbdfcee000000000000000000000000000000000000000000000000000000001480610c1857507fffffffff0000000000000000000000000000000000000000000000000000000082167f65455a8600000000000000000000000000000000000000000000000000000000145b80610c6457507fffffffff0000000000000000000000000000000000000000000000000000000082167f4e2312e000000000000000000000000000000000000000000000000000000000145b80610cb057507f01ffc9a7000000000000000000000000000000000000000000000000000000007fffffffff000000000000000000000000000000000000000000000000000000008316145b92915050565b610cbe611f32565b610cc781611fde565b50565b606060038054610cd990614f0c565b80601f0160208091040260200160405190810160405280929190818152602001828054610d0590614f0c565b8015610d505780601f10610d2757610100808354040283529160200191610d50565b820191905f5260205f20905b815481529060010190602001808311610d3357829003601f168201915b5050505050905090565b5f30610d64610b61565b73ffffffffffffffffffffffffffffffffffffffff1614610db1576040517fe90a651e00000000000000000000000000000000000000000000000000000000815260040160405180910390fd5b507f150b7a0200000000000000000000000000000000000000000000000000000000949350505050565b5f5f610de986868686611be4565b9050610dfe81610df9600461208c565b6120ae565b505f610e0d8288888888612104565b905065ffffffffffff811615610e9d575f8281526004602090815260409182902060010180547fffffffffffffffffffffffffffffffffffffffffffffffffffff0000000000001665ffffffffffff85169081179091558251858152918201527f9a2e42fd6722813d69113e7d0079d3d940171428df7373df9c7f7617cfda2892910160405180910390a1610ecf565b6040517f90884a4600000000000000000000000000000000000000000000000000000000815260040160405180910390fd5b5095945050505050565b5f610ee384612112565b90506003816007811115610ef957610ef9614804565b1480610f1657506004816007811115610f1457610f14614804565b145b1561103c575f848152600b602052604090205415610f95576040517f08c379a000000000000000000000000000000000000000000000000000000000815260206004820152601d60248201527f50726f706f73616c20697320616c72656164792066696e616c697a656400000060448201526064015b60405180910390fd5b6040517fa4079e9100000000000000000000000000000000000000000000000000000000815273ffffffffffffffffffffffffffffffffffffffff7f0000000000000000000000000000000000000000000000000000000000000000169063a4079e9190349061100d90889088908890600401614fa4565b5f604051808303818588803b158015611024575f5ffd5b505af1158015611036573d5f5f3e3d5ffd5b50505050505b50505050565b5f5f61105086868686611be4565b905061107081611060600561208c565b61106a600461208c565b176120ae565b505f81815260046020526040902080547fff00ffffffffffffffffffffffffffffffffffffffffffffffffffffffffffff167e01000000000000000000000000000000000000000000000000000000000000179055306110ce610b61565b73ffffffffffffffffffffffffffffffffffffffff161461117e575f5b865181101561117c573073ffffffffffffffffffffffffffffffffffffffff1687828151811061111d5761111d614fbd565b602002602001015173ffffffffffffffffffffffffffffffffffffffff16036111745761117485828151811061115557611155614fbd565b602002602001015180519060200120600561229790919063ffffffff16565b6001016110eb565b505b61118b8187878787612324565b30611194610b61565b73ffffffffffffffffffffffffffffffffffffffff16141580156111e357506005546fffffffffffffffffffffffffffffffff8082167001000000000000000000000000000000009092041614155b156111ed575f6005555b6040518181527f712ae1383f79ac853f8d882153778e0260ef8f03b504e2866e0593e04d2b291f906020015b60405180910390a195945050505050565b5f61123482612112565b9050600381600781111561124a5761124a614804565b14806112675750600481600781111561126557611265614804565b145b15611306575f828152600b6020526040902054611306576040517f08c379a000000000000000000000000000000000000000000000000000000000815260206004820152603460248201527f50726f706f73616c20766f74696e672068617320656e6465642c20627574207760448201527f6173206e6f742066696e616c697a6564207965740000000000000000000000006064820152608401610f8c565b919050565b5f5f61131986868686611be4565b9050336113268282612338565b61137b576040517f8fe5d8a90000000000000000000000000000000000000000000000000000000081526004810183905273ffffffffffffffffffffffffffffffffffffffff82166024820152604401610f8c565b6113878787878761238a565b979650505050505050565b60607f000000000000000000000000000000000000000000000000000000000000000073ffffffffffffffffffffffffffffffffffffffff16634bf5d7e96040518163ffffffff1660e01b81526004015f60405180830381865afa92505050801561143c57506040513d5f823e601f3d9081017fffffffffffffffffffffffffffffffffffffffffffffffffffffffffffffffe01682016040526114399190810190614fea565b60015b611306575060408051808201909152601d81527f6d6f64653d626c6f636b6e756d6265722666726f6d3d64656661756c74000000602082015290565b5f81815260076020908152604080832060010154600b90925282205482906114a0908361508c565b5f935091508290505b9193909250565b5f803390506114cf84828560405180602001604052805f815250612397565b949350505050565b5f6114e48787878761190a565b5f818152600460205260408120549192509074010000000000000000000000000000000000000000900465ffffffffffff1690505f61152283611c84565b6040517f47b157c100000000000000000000000000000000000000000000000000000000815290915073ffffffffffffffffffffffffffffffffffffffff7f000000000000000000000000000000000000000000000000000000000000000016906347b157c19034906115a1908790879087908c908c9060040161509f565b5f604051808303818588803b1580156115b8575f5ffd5b505af11580156115ca573d5f5f3e3d5ffd5b505050505050509695505050505050565b5f5f6116d6876116d07f3e83946653575f9a39005e1545185629e92736b7528ab20ca3816f315424a8118c8c8c61163b8e73ffffffffffffffffffffffffffffffffffffffff165f90815260026020526040902080546001810190915590565b8d8d60405161164b9291906150c4565b60405180910390208c805190602001206040516020016116b59796959493929190968752602087019590955260ff93909316604086015273ffffffffffffffffffffffffffffffffffffffff919091166060850152608084015260a083015260c082015260e00190565b604051602081830303815290604052805190602001206123b8565b856123ff565b905080611727576040517f94ab6c0700000000000000000000000000000000000000000000000000000000815273ffffffffffffffffffffffffffffffffffffffff88166004820152602401610f8c565b61176a89888a89898080601f0160208091040260200160405190810160405280939291908181526020018383808284375f920191909152508b9250612496915050565b9998505050505050505050565b3373ffffffffffffffffffffffffffffffffffffffff7f00000000000000000000000000000000000000000000000000000000000000001614611816576040517f08c379a000000000000000000000000000000000000000000000000000000000815260206004820152601360248201527f4f6e6c7920676f7665726e6f722072656c6179000000000000000000000000006044820152606401610f8c565b5f828152600b6020526040908190208290555182907f46667887f8764280a2831a051408a796e9173bf55616512d21a37fe86999eb139061185a9084815260200190565b60405180910390a25050565b5f8033905061138787828888888080601f0160208091040260200160405190810160405280939291908181526020018383808284375f920191909152508a9250612496915050565b5f610cb06008836125b4565b5f8033905061190086828787878080601f0160208091040260200160405190810160405280939291908181526020018383808284375f9201919091525061239792505050565b9695505050505050565b5f336119168184612614565b611964576040517fd9b3955700000000000000000000000000000000000000000000000000000000815273ffffffffffffffffffffffffffffffffffffffff82166004820152602401610f8c565b5f61138787878787866126fb565b5f6060805f5f5f60606119836129ba565b61198b6129e6565b604080515f808252602082019092527f0f000000000000000000000000000000000000000000000000000000000000009b939a50919850469750309650945092509050565b5f5f611a74846116d07ff2aad550cf55f045cb27e9c559f9889fdfb6e6cdaa032301d6ea397784ae51d7898989611a308b73ffffffffffffffffffffffffffffffffffffffff165f90815260026020526040902080546001810190915590565b60408051602081019690965285019390935260ff909116606084015273ffffffffffffffffffffffffffffffffffffffff16608083015260a082015260c0016116b5565b905080611ac5576040517f94ab6c0700000000000000000000000000000000000000000000000000000000815273ffffffffffffffffffffffffffffffffffffffff85166004820152602401610f8c565b61190086858760405180602001604052805f815250612397565b5f7f000000000000000000000000000000000000000000000000000000000000000073ffffffffffffffffffffffffffffffffffffffff166391ddadf46040518163ffffffff1660e01b8152600401602060405180830381865afa925050508015611b85575060408051601f3d9081017fffffffffffffffffffffffffffffffffffffffffffffffffffffffffffffffe0168201909252611b82918101906150d3565b60015b61130657610b81612a13565b5f611b9d848484612a1d565b90505b9392505050565b5f611bb26008612ad6565b79ffffffffffffffffffffffffffffffffffffffffffffffffffff16905090565b611bdb611f32565b610cc781612b30565b5f611bf185858585611d77565b95945050505050565b5f6001610cb0565b5f30611c0c610b61565b73ffffffffffffffffffffffffffffffffffffffff1614611c59576040517fe90a651e00000000000000000000000000000000000000000000000000000000815260040160405180910390fd5b507fbc197c810000000000000000000000000000000000000000000000000000000095945050505050565b5f81815260046020526040812054611ce0907a010000000000000000000000000000000000000000000000000000810463ffffffff169074010000000000000000000000000000000000000000900465ffffffffffff166150f8565b65ffffffffffff1692915050565b611cf6611f32565b5f5f8573ffffffffffffffffffffffffffffffffffffffff16858585604051611d209291906150c4565b5f6040518083038185875af1925050503d805f8114611d5a576040519150601f19603f3d011682016040523d82523d5f602084013e611d5f565b606091505b5091509150611d6e8282612bcb565b50505050505050565b5f84848484604051602001611d8f94939291906151d4565b604080517fffffffffffffffffffffffffffffffffffffffffffffffffffffffffffffffe0818403018152919052805160209091012095945050505050565b5f611ba08383611de860408051602081019091525f815290565b612a1d565b5f30611df7610b61565b73ffffffffffffffffffffffffffffffffffffffff1614611e44576040517fe90a651e00000000000000000000000000000000000000000000000000000000815260040160405180910390fd5b507ff23a6e610000000000000000000000000000000000000000000000000000000095945050505050565b6040517f8e539e8c000000000000000000000000000000000000000000000000000000008152600481018290525f90610cb09073ffffffffffffffffffffffffffffffffffffffff7f00000000000000000000000000000000000000000000000000000000000000001690638e539e8c90602401602060405180830381865afa158015611efe573d5f5f3e3d5ffd5b505050506040513d601f19601f82011682018060405250810190611f22919061521e565b611f2b846118ae565b6064612be7565b33611f3b610b61565b73ffffffffffffffffffffffffffffffffffffffff1614611f8a576040517f47096e47000000000000000000000000000000000000000000000000000000008152336004820152602401610f8c565b30611f93610b61565b73ffffffffffffffffffffffffffffffffffffffff1614611fdc575f8036604051611fbf9291906150c4565b604051809103902090505b80611fd56005612c97565b03611fca57505b565b606480821115612024576040517f243e54450000000000000000000000000000000000000000000000000000000081526004810183905260248101829052604401610f8c565b5f61202d611ba7565b905061204c61203a611adf565b61204385612d32565b60089190612d95565b505060408051828152602081018590527f0553476bf02ef2726e8ce5ced78d63e26e602e4a2257b1f559418e24b4633997910160405180910390a1505050565b5f81600781111561209f5761209f614804565b600160ff919091161b92915050565b5f5f6120b98461122a565b90505f836120c68361208c565b1603611ba0578381846040517f31b75e4d000000000000000000000000000000000000000000000000000000008152600401610f8c93929190615235565b5f6119008686868686612daf565b5f5f61211d83612fc5565b9050600581600781111561213357612133614804565b1461213e5792915050565b5f838152600a6020526040908190205460095491517f584b153e00000000000000000000000000000000000000000000000000000000815260048101829052909173ffffffffffffffffffffffffffffffffffffffff169063584b153e90602401602060405180830381865afa1580156121ba573d5f5f3e3d5ffd5b505050506040513d601f19601f820116820180604052508101906121de9190615257565b156121ed575060059392505050565b6009546040517f2ab0f5290000000000000000000000000000000000000000000000000000000081526004810183905273ffffffffffffffffffffffffffffffffffffffff90911690632ab0f52990602401602060405180830381865afa15801561225a573d5f5f3e3d5ffd5b505050506040513d601f19601f8201168201806040525081019061227e9190615257565b1561228d575060079392505050565b5060029392505050565b81546fffffffffffffffffffffffffffffffff7001000000000000000000000000000000008204811691811660018301909116036122d9576122d9604161315d565b6fffffffffffffffffffffffffffffffff8082165f90815260018086016020526040909120939093558354919092018216700100000000000000000000000000000000029116179055565b612331858585858561316e565b5050505050565b5f806123438461122a565b600781111561235457612354614804565b148015611ba05750505f918252600460205260409091205473ffffffffffffffffffffffffffffffffffffffff91821691161490565b5f611bf18585858561321e565b5f611bf1858585856123b360408051602081019091525f815290565b612496565b5f610cb06123c46132db565b836040517f19010000000000000000000000000000000000000000000000000000000000008152600281019290925260228201526042902090565b5f8373ffffffffffffffffffffffffffffffffffffffff163b5f03612484575f5f61242a8585613411565b5090925090505f81600381111561244357612443614804565b14801561247b57508573ffffffffffffffffffffffffffffffffffffffff168273ffffffffffffffffffffffffffffffffffffffff16145b92505050611ba0565b61248f84848461345a565b9050611ba0565b5f6124a586610df9600161208c565b505f868152600460205260408120546124e090879074010000000000000000000000000000000000000000900465ffffffffffff1685612a1d565b90505f6124f088888885886135a2565b905083515f03612553578673ffffffffffffffffffffffffffffffffffffffff167fb8e138887d0aa13bab447e82de9d5c1777041ecd21ca36ba824ff1e6c07ddda4898884896040516125469493929190615276565b60405180910390a2611387565b8673ffffffffffffffffffffffffffffffffffffffff167fe2babfbac5889a709b63bb7f598b324e08bc5a4fb9ec647fb3cbc9ec07eb871289888489896040516125a195949392919061529d565b60405180910390a2979650505050505050565b5f5f5f6125c085613752565b9250925050838265ffffffffffff1611156125ed576125e86125e1856137c0565b869061380b565b6125ef565b805b79ffffffffffffffffffffffffffffffffffffffffffffffffffff1695945050505050565b80515f90603481101561262b576001915050610cb0565b7fffffffffffffffffffffffffffffffffffffffffffffffffffffffffffffffec81840101517fffffffffffffffffffff0000000000000000000000000000000000000000000081167f2370726f706f7365723d00000000000000000000000000000000000000000000146126a557600192505050610cb0565b5f5f6126b586602a8603866138c3565b9150915081158061138757508673ffffffffffffffffffffffffffffffffffffffff168173ffffffffffffffffffffffffffffffffffffffff1614979650505050505050565b5f61270f8686868680519060200120611be4565b90508451865114158061272457508351865114155b8061272e57508551155b1561277c578551845186516040517f447b05d0000000000000000000000000000000000000000000000000000000008152600481019390935260248301919091526044820152606401610f8c565b5f8181526004602052604090205474010000000000000000000000000000000000000000900465ffffffffffff16156127ef57806127b98261122a565b6040517f31b75e4d000000000000000000000000000000000000000000000000000000008152610f8c9291905f90600401615235565b5f603c6127fa611adf565b65ffffffffffff1661280c919061508c565b90505f610e105f84815260046020526040902080547fffffffffffffffffffffffff00000000000000000000000000000000000000001673ffffffffffffffffffffffffffffffffffffffff8716178155909150612869836137c0565b815465ffffffffffff9190911674010000000000000000000000000000000000000000027fffffffffffff000000000000ffffffffffffffffffffffffffffffffffffffff9091161781556128bd8261399f565b815463ffffffff919091167a010000000000000000000000000000000000000000000000000000027fffff00000000ffffffffffffffffffffffffffffffffffffffffffffffffffff90911617815588517f7d84a6263ae0d98d3329bd7b46bb4e8d6f98cd35a7adb45c274c8b7fd5ebd5e090859087908c908c9067ffffffffffffffff81111561295057612950614403565b60405190808252806020026020018201604052801561298357816020015b606081526020019060019003908161296e5790505b508c896129908a8261508c565b8e6040516129a6999897969594939291906152d6565b60405180910390a150505095945050505050565b6060610b817f00000000000000000000000000000000000000000000000000000000000000005f6139e8565b6060610b817f000000000000000000000000000000000000000000000000000000000000000060016139e8565b5f610b81436137c0565b5f7f00000000000000000000000000000000000000000000000000000000000000006040517f3a46b1a800000000000000000000000000000000000000000000000000000000815273ffffffffffffffffffffffffffffffffffffffff8681166004830152602482018690529190911690633a46b1a890604401602060405180830381865afa158015612ab2573d5f5f3e3d5ffd5b505050506040513d601f19601f82011682018060405250810190611b9d919061521e565b80545f908015612b2857612afc83612aef6001846153db565b5f91825260209091200190565b546601000000000000900479ffffffffffffffffffffffffffffffffffffffffffffffffffff16611ba0565b5f9392505050565b6009546040805173ffffffffffffffffffffffffffffffffffffffff928316815291831660208301527f08f74ea46ef7894f65eabfb5e6e695de773a000b47c529ab559178069b226401910160405180910390a1600980547fffffffffffffffffffffffff00000000000000000000000000000000000000001673ffffffffffffffffffffffffffffffffffffffff92909216919091179055565b606082612be057612bdb82613a91565b610cb0565b5080610cb0565b5f5f5f612bf48686613ad3565b91509150815f03612c1857838181612c0e57612c0e6153ee565b0492505050611ba0565b818411612c2f57612c2f600385150260111861315d565b5f848688095f868103871696879004966002600389028118808a02820302808a02820302808a02820302808a02820302808a02820302808a02909103029181900381900460010185841190960395909502919093039390930492909217029150509392505050565b80545f906fffffffffffffffffffffffffffffffff808216917001000000000000000000000000000000009004168103612cd557612cd5603161315d565b6fffffffffffffffffffffffffffffffff8181165f908152600185810160205260408220805492905585547fffffffffffffffffffffffffffffffff00000000000000000000000000000000169301909116919091179092555090565b5f79ffffffffffffffffffffffffffffffffffffffffffffffffffff821115612d91576040517f6dfcc65000000000000000000000000000000000000000000000000000000000815260d0600482015260248101839052604401610f8c565b5090565b5f80612da2858585613b0e565b915091505b935093915050565b5f5f60095f9054906101000a900473ffffffffffffffffffffffffffffffffffffffff1673ffffffffffffffffffffffffffffffffffffffff1663f27a0c926040518163ffffffff1660e01b8152600401602060405180830381865afa158015612e1b573d5f5f3e3d5ffd5b505050506040513d601f19601f82011682018060405250810190612e3f919061521e565b90505f3060601b7fffffffffffffffffffffffffffffffffffffffff0000000000000000000000001684186009546040517fb1c5f42700000000000000000000000000000000000000000000000000000000815291925073ffffffffffffffffffffffffffffffffffffffff169063b1c5f42790612ec9908a908a908a905f90889060040161541b565b602060405180830381865afa158015612ee4573d5f5f3e3d5ffd5b505050506040513d601f19601f82011682018060405250810190612f08919061521e565b5f898152600a60205260408082209290925560095491517f8f2a0bb000000000000000000000000000000000000000000000000000000000815273ffffffffffffffffffffffffffffffffffffffff90921691638f2a0bb091612f78918b918b918b919088908a90600401615468565b5f604051808303815f87803b158015612f8f575f5ffd5b505af1158015612fa1573d5f5f3e3d5ffd5b50505050612fb98242612fb4919061508c565b6137c0565b98975050505050505050565b5f818152600460205260408120805460ff7e0100000000000000000000000000000000000000000000000000000000000082048116917f0100000000000000000000000000000000000000000000000000000000000000900416811561303057506007949350505050565b801561304157506002949350505050565b5f8581526004602052604081205474010000000000000000000000000000000000000000900465ffffffffffff169050805f036130ad576040517f6ad0607500000000000000000000000000000000000000000000000000000000815260048101879052602401610f8c565b5f6130b6611adf565b65ffffffffffff1690508082106130d357505f9695505050505050565b5f6130dd88611c84565b90508181106130f457506001979650505050505050565b6130fd88613ccf565b158061310f575061310d88613d21565b155b1561312257506003979650505050505050565b5f8881526004602052604090206001015465ffffffffffff165f0361314f57506004979650505050505050565b506005979650505050505050565b634e487b715f52806020526024601cfd5b60095473ffffffffffffffffffffffffffffffffffffffff1663e38335e5348686865f3060601b7fffffffffffffffffffffffffffffffffffffffff0000000000000000000000001688186040518763ffffffff1660e01b81526004016131d995949392919061541b565b5f604051808303818588803b1580156131f0575f5ffd5b505af1158015613202573d5f5f3e3d5ffd5b5050505f9687525050600a602052505060408320929092555050565b5f5f61322c86868686613d37565b5f818152600a60205260409020549091508015610ecf576009546040517fc4d252f50000000000000000000000000000000000000000000000000000000081526004810183905273ffffffffffffffffffffffffffffffffffffffff9091169063c4d252f5906024015f604051808303815f87803b1580156132ac575f5ffd5b505af11580156132be573d5f5f3e3d5ffd5b5050505f838152600a602052604081205550509050949350505050565b5f3073ffffffffffffffffffffffffffffffffffffffff7f00000000000000000000000000000000000000000000000000000000000000001614801561334057507f000000000000000000000000000000000000000000000000000000000000000046145b1561336a57507f000000000000000000000000000000000000000000000000000000000000000090565b610b81604080517f8b73c3c69bb8fe3d512ecc4cf759cc79239f7b179b0ffacaa9a75d522b39400f60208201527f0000000000000000000000000000000000000000000000000000000000000000918101919091527f000000000000000000000000000000000000000000000000000000000000000060608201524660808201523060a08201525f9060c00160405160208183030381529060405280519060200120905090565b5f5f5f8351604103613448576020840151604085015160608601515f1a61343a88828585613e1a565b955095509550505050613453565b505081515f91506002905b9250925092565b5f5f5f8573ffffffffffffffffffffffffffffffffffffffff1685856040516024016134879291906154bf565b604080517fffffffffffffffffffffffffffffffffffffffffffffffffffffffffffffffe08184030181529181526020820180517bffffffffffffffffffffffffffffffffffffffffffffffffffffffff167f1626ba7e000000000000000000000000000000000000000000000000000000001790525161350891906154d7565b5f60405180830381855afa9150503d805f8114613540576040519150601f19603f3d011682016040523d82523d5f602084013e613545565b606091505b509150915081801561355957506020815110155b8015611900575080517f1626ba7e0000000000000000000000000000000000000000000000000000000090613597908301602090810190840161521e565b149695505050505050565b5f85815260076020908152604080832073ffffffffffffffffffffffffffffffffffffffff881684526003810190925282205460ff1615613627576040517f71c6af4900000000000000000000000000000000000000000000000000000000815273ffffffffffffffffffffffffffffffffffffffff87166004820152602401610f8c565b73ffffffffffffffffffffffffffffffffffffffff86165f908152600382016020526040902080547fffffffffffffffffffffffffffffffffffffffffffffffffffffffffffffff0016600117905560ff851661369b5783815f015f828254613690919061508c565b909155506137479050565b7fffffffffffffffffffffffffffffffffffffffffffffffffffffffffffffffff60ff8616016136d85783816001015f828254613690919061508c565b7ffffffffffffffffffffffffffffffffffffffffffffffffffffffffffffffffe60ff8616016137155783816002015f828254613690919061508c565b6040517f06b337c200000000000000000000000000000000000000000000000000000000815260040160405180910390fd5b509195945050505050565b80545f9081908190808203613770575f5f5f935093509350506114a9565b5f61378086612aef6001856153db565b546001955065ffffffffffff811694506601000000000000900479ffffffffffffffffffffffffffffffffffffffffffffffffffff1692506114a9915050565b5f65ffffffffffff821115612d91576040517f6dfcc6500000000000000000000000000000000000000000000000000000000081526030600482015260248101839052604401610f8c565b81545f9081816005811115613867575f61382484613f0d565b61382e90856153db565b5f8881526020902090915081015465ffffffffffff908116908716101561385757809150613865565b61386281600161508c565b92505b505b5f61387487878585614072565b905080156138b75761388b87612aef6001846153db565b546601000000000000900479ffffffffffffffffffffffffffffffffffffffffffffffffffff16611387565b505f9695505050505050565b5f5f84518311806138d357508284115b156138e257505f905080612da7565b5f6138ee85600161508c565b8411801561394957507f30780000000000000000000000000000000000000000000000000000000000006139258787016020015190565b7fffff00000000000000000000000000000000000000000000000000000000000016145b90505f61395982151560026154ed565b61396490602861508c565b90508061397187876153db565b03613992575f5f6139838989896140d1565b9096509450612da79350505050565b5f5f935093505050612da7565b5f63ffffffff821115612d91576040517f6dfcc6500000000000000000000000000000000000000000000000000000000081526020600482015260248101839052604401610f8c565b606060ff8314613a02576139fb836141c5565b9050610cb0565b818054613a0e90614f0c565b80601f0160208091040260200160405190810160405280929190818152602001828054613a3a90614f0c565b8015613a855780601f10613a5c57610100808354040283529160200191613a85565b820191905f5260205f20905b815481529060010190602001808311613a6857829003601f168201915b50505050509050610cb0565b805115613aa15780518082602001fd5b6040517fd6bda27500000000000000000000000000000000000000000000000000000000815260040160405180910390fd5b5f807fffffffffffffffffffffffffffffffffffffffffffffffffffffffffffffffff83850993909202808410938190039390930393915050565b82545f9081908015613c5f575f613b2a87612aef6001856153db565b805490915065ffffffffffff808216916601000000000000900479ffffffffffffffffffffffffffffffffffffffffffffffffffff16908816821115613b9c576040517f2520601d00000000000000000000000000000000000000000000000000000000815260040160405180910390fd5b8765ffffffffffff168265ffffffffffff1603613beb57825465ffffffffffff16660100000000000079ffffffffffffffffffffffffffffffffffffffffffffffffffff891602178355613c51565b6040805180820190915265ffffffffffff808a16825279ffffffffffffffffffffffffffffffffffffffffffffffffffff808a1660208085019182528d54600181018f555f8f815291909120945191519092166601000000000000029216919091179101555b9450859350612da792505050565b50506040805180820190915265ffffffffffff808516825279ffffffffffffffffffffffffffffffffffffffffffffffffffff80851660208085019182528854600181018a555f8a8152918220955192519093166601000000000000029190931617920191909155905081612da7565b5f5f613cda83611478565b5091505080613d18610b2a855f9081526004602052604090205465ffffffffffff740100000000000000000000000000000000000000009091041690565b11159392505050565b5f5f613d2c83611478565b501515949350505050565b5f5f613d4586868686611be4565b9050613d9381613d55600761208c565b613d5f600661208c565b613d69600261208c565b6001613d76600782615504565b613d81906002615636565b613d8b91906153db565b1818186120ae565b505f818152600460205260409081902080547effffffffffffffffffffffffffffffffffffffffffffffffffffffffffffff167f0100000000000000000000000000000000000000000000000000000000000000179055517f789cf55be980739dad1d0699b93b58e806b51c9d96619bfa8fe0a28abaa7b30c906112199083815260200190565b5f80807f7fffffffffffffffffffffffffffffff5d576e7357a4501ddfe92f46681b20a0841115613e5357505f91506003905082613f03565b604080515f808252602082018084528a905260ff891692820192909252606081018790526080810186905260019060a0016020604051602081039080840390855afa158015613ea4573d5f5f3e3d5ffd5b50506040517fffffffffffffffffffffffffffffffffffffffffffffffffffffffffffffffe0015191505073ffffffffffffffffffffffffffffffffffffffff8116613efa57505f925060019150829050613f03565b92505f91508190505b9450945094915050565b5f60018211613f1a575090565b8160017001000000000000000000000000000000008210613f405760809190911c9060401b5b680100000000000000008210613f5b5760409190911c9060201b5b6401000000008210613f725760209190911c9060101b5b620100008210613f875760109190911c9060081b5b6101008210613f9b5760089190911c9060041b5b60108210613fae5760049190911c9060021b5b60048210613fba5760011b5b600302600190811c90818581613fd257613fd26153ee565b048201901c90506001818581613fea57613fea6153ee565b048201901c90506001818581614002576140026153ee565b048201901c9050600181858161401a5761401a6153ee565b048201901c90506001818581614032576140326153ee565b048201901c9050600181858161404a5761404a6153ee565b048201901c9050614069818581614063576140636153ee565b04821190565b90039392505050565b5f5b818310156140c9575f6140878484614202565b5f8781526020902090915065ffffffffffff86169082015465ffffffffffff1611156140b5578092506140c3565b6140c081600161508c565b93505b50614074565b509392505050565b5f8084816140e086600161508c565b8511801561413b57507f30780000000000000000000000000000000000000000000000000000000000006141178388016020015190565b7fffff00000000000000000000000000000000000000000000000000000000000016145b90505f61414b82151560026154ed565b90505f80614159838a61508c565b90505b878110156141b4575f61417a6141758784016020015190565b61421c565b9050600f8160ff161115614199575f5f97509750505050505050612da7565b6141a46010846154ed565b60ff90911601915060010161415c565b506001999098509650505050505050565b60605f6141d1836142ee565b6040805160208082528183019092529192505f91906020820181803683375050509182525060208101929092525090565b5f6142106002848418615644565b611ba09084841661508c565b5f60f882901c602f811180156142355750603a8160ff16105b15614261577fffffffffffffffffffffffffffffffffffffffffffffffffffffffffffffffd001610cb0565b60608160ff16118015614277575060678160ff16105b156142a3577fffffffffffffffffffffffffffffffffffffffffffffffffffffffffffffffa901610cb0565b60408160ff161180156142b9575060478160ff16105b156142e5577fffffffffffffffffffffffffffffffffffffffffffffffffffffffffffffffc901610cb0565b5060ff92915050565b5f60ff8216601f811115610cb0576040517fb3512b0c00000000000000000000000000000000000000000000000000000000815260040160405180910390fd5b5f6020828403121561433e575f5ffd5b81357fffffffff0000000000000000000000000000000000000000000000000000000081168114611ba0575f5ffd5b5f6020828403121561437d575f5ffd5b5035919050565b5f81518084528060208401602086015e5f6020828601015260207fffffffffffffffffffffffffffffffffffffffffffffffffffffffffffffffe0601f83011685010191505092915050565b602081525f611ba06020830184614384565b73ffffffffffffffffffffffffffffffffffffffff81168114610cc7575f5ffd5b7f4e487b71000000000000000000000000000000000000000000000000000000005f52604160045260245ffd5b604051601f82017fffffffffffffffffffffffffffffffffffffffffffffffffffffffffffffffe016810167ffffffffffffffff8111828210171561447757614477614403565b604052919050565b5f67ffffffffffffffff82111561449857614498614403565b50601f017fffffffffffffffffffffffffffffffffffffffffffffffffffffffffffffffe01660200190565b5f82601f8301126144d3575f5ffd5b8135602083015f6144eb6144e68461447f565b614430565b90508281528583830111156144fe575f5ffd5b828260208301375f92810160200192909252509392505050565b5f5f5f5f6080858703121561452b575f5ffd5b8435614536816143e2565b93506020850135614546816143e2565b925060408501359150606085013567ffffffffffffffff811115614568575f5ffd5b614574878288016144c4565b91505092959194509250565b5f67ffffffffffffffff82111561459957614599614403565b5060051b60200190565b5f82601f8301126145b2575f5ffd5b81356145c06144e682614580565b8082825260208201915060208360051b8601019250858311156145e1575f5ffd5b602085015b83811015610ecf5780356145f9816143e2565b8352602092830192016145e6565b5f82601f830112614616575f5ffd5b81356146246144e682614580565b8082825260208201915060208360051b860101925085831115614645575f5ffd5b602085015b83811015610ecf57803583526020928301920161464a565b5f82601f830112614671575f5ffd5b813561467f6144e682614580565b8082825260208201915060208360051b8601019250858311156146a0575f5ffd5b602085015b83811015610ecf57803567ffffffffffffffff8111156146c3575f5ffd5b6146d2886020838a01016144c4565b845250602092830192016146a5565b5f5f5f5f608085870312156146f4575f5ffd5b843567ffffffffffffffff81111561470a575f5ffd5b614716878288016145a3565b945050602085013567ffffffffffffffff811115614732575f5ffd5b61473e87828801614607565b935050604085013567ffffffffffffffff81111561475a575f5ffd5b61476687828801614662565b949793965093946060013593505050565b5f5f83601f840112614787575f5ffd5b50813567ffffffffffffffff81111561479e575f5ffd5b6020830191508360208285010111156147b5575f5ffd5b9250929050565b5f5f5f604084860312156147ce575f5ffd5b83359250602084013567ffffffffffffffff8111156147eb575f5ffd5b6147f786828701614777565b9497909650939450505050565b7f4e487b71000000000000000000000000000000000000000000000000000000005f52602160045260245ffd5b60088110614866577f4e487b71000000000000000000000000000000000000000000000000000000005f52602160045260245ffd5b9052565b60208101610cb08284614831565b5f5f60408385031215614889575f5ffd5b82359150602083013561489b816143e2565b809150509250929050565b803560ff81168114611306575f5ffd5b5f5f604083850312156148c7575f5ffd5b823591506148d7602084016148a6565b90509250929050565b5f5f5f5f5f5f60a087890312156148f5575f5ffd5b863567ffffffffffffffff81111561490b575f5ffd5b61491789828a016145a3565b965050602087013567ffffffffffffffff811115614933575f5ffd5b61493f89828a01614607565b955050604087013567ffffffffffffffff81111561495b575f5ffd5b61496789828a01614662565b945050606087013567ffffffffffffffff811115614983575f5ffd5b61498f89828a016144c4565b935050608087013567ffffffffffffffff8111156149ab575f5ffd5b6149b789828a01614777565b979a9699509497509295939492505050565b5f5f5f5f5f5f5f60c0888a0312156149df575f5ffd5b873596506149ef602089016148a6565b955060408801356149ff816143e2565b9450606088013567ffffffffffffffff811115614a1a575f5ffd5b614a268a828b01614777565b909550935050608088013567ffffffffffffffff811115614a45575f5ffd5b614a518a828b016144c4565b92505060a088013567ffffffffffffffff811115614a6d575f5ffd5b614a798a828b016144c4565b91505092959891949750929550565b5f5f60408385031215614a99575f5ffd5b50508035926020909101359150565b5f5f5f5f5f60808688031215614abc575f5ffd5b85359450614acc602087016148a6565b9350604086013567ffffffffffffffff811115614ae7575f5ffd5b614af388828901614777565b909450925050606086013567ffffffffffffffff811115614b12575f5ffd5b614b1e888289016144c4565b9150509295509295909350565b5f5f5f5f60608587031215614b3e575f5ffd5b84359350614b4e602086016148a6565b9250604085013567ffffffffffffffff811115614b69575f5ffd5b614b7587828801614777565b95989497509550505050565b5f5f5f5f60808587031215614b94575f5ffd5b843567ffffffffffffffff811115614baa575f5ffd5b614bb6878288016145a3565b945050602085013567ffffffffffffffff811115614bd2575f5ffd5b614bde87828801614607565b935050604085013567ffffffffffffffff811115614bfa575f5ffd5b614c0687828801614662565b925050606085013567ffffffffffffffff811115614568575f5ffd5b5f60208284031215614c32575f5ffd5b8135611ba0816143e2565b5f8151808452602084019350602083015f5b82811015614c6d578151865260209586019590910190600101614c4f565b5093949350505050565b7fff000000000000000000000000000000000000000000000000000000000000008816815260e060208201525f614cb160e0830189614384565b8281036040840152614cc38189614384565b905086606084015273ffffffffffffffffffffffffffffffffffffffff861660808401528460a084015282810360c0840152614cff8185614c3d565b9a9950505050505050505050565b5f5f5f5f60808587031215614d20575f5ffd5b84359350614d30602086016148a6565b92506040850135614d40816143e2565b9150606085013567ffffffffffffffff811115614568575f5ffd5b5f5f5f60608486031215614d6d575f5ffd5b8335614d78816143e2565b925060208401359150604084013567ffffffffffffffff811115614d9a575f5ffd5b614da6868287016144c4565b9150509250925092565b5f5f5f5f5f60a08688031215614dc4575f5ffd5b8535614dcf816143e2565b94506020860135614ddf816143e2565b9350604086013567ffffffffffffffff811115614dfa575f5ffd5b614e0688828901614607565b935050606086013567ffffffffffffffff811115614e22575f5ffd5b614e2e88828901614607565b925050608086013567ffffffffffffffff811115614b12575f5ffd5b5f5f5f5f60608587031215614e5d575f5ffd5b8435614e68816143e2565b935060208501359250604085013567ffffffffffffffff811115614b69575f5ffd5b5f5f60408385031215614e9b575f5ffd5b8235614ea6816143e2565b946020939093013593505050565b5f5f5f5f5f60a08688031215614ec8575f5ffd5b8535614ed3816143e2565b94506020860135614ee3816143e2565b93506040860135925060608601359150608086013567ffffffffffffffff811115614b12575f5ffd5b600181811c90821680614f2057607f821691505b602082108103614f57577f4e487b71000000000000000000000000000000000000000000000000000000005f52602260045260245ffd5b50919050565b81835281816020850137505f602082840101525f60207fffffffffffffffffffffffffffffffffffffffffffffffffffffffffffffffe0601f840116840101905092915050565b838152604060208201525f611bf1604083018486614f5d565b7f4e487b71000000000000000000000000000000000000000000000000000000005f52603260045260245ffd5b5f60208284031215614ffa575f5ffd5b815167ffffffffffffffff811115615010575f5ffd5b8201601f81018413615020575f5ffd5b805161502e6144e68261447f565b818152856020838501011115615042575f5ffd5b8160208401602083015e5f91810160200191909152949350505050565b7f4e487b71000000000000000000000000000000000000000000000000000000005f52601160045260245ffd5b80820180821115610cb057610cb061505f565b858152846020820152836040820152608060608201525f611387608083018486614f5d565b818382375f9101908152919050565b5f602082840312156150e3575f5ffd5b815165ffffffffffff81168114611ba0575f5ffd5b65ffffffffffff8181168382160190811115610cb057610cb061505f565b5f8151808452602084019350602083015f5b82811015614c6d57815173ffffffffffffffffffffffffffffffffffffffff16865260209586019590910190600101615128565b5f82825180855260208501945060208160051b830101602085015f5b838110156151c8577fffffffffffffffffffffffffffffffffffffffffffffffffffffffffffffffe08584030188526151b2838351614384565b6020988901989093509190910190600101615178565b50909695505050505050565b608081525f6151e66080830187615116565b82810360208401526151f88187614c3d565b9050828103604084015261520c818661515c565b91505082606083015295945050505050565b5f6020828403121561522e575f5ffd5b5051919050565b838152606081016152496020830185614831565b826040830152949350505050565b5f60208284031215615267575f5ffd5b81518015158114611ba0575f5ffd5b84815260ff84166020820152826040820152608060608201525f6119006080830184614384565b85815260ff8516602082015283604082015260a060608201525f6152c460a0830185614384565b8281036080840152612fb98185614384565b89815273ffffffffffffffffffffffffffffffffffffffff8916602082015261012060408201525f61530c61012083018a615116565b828103606084015261531e818a614c3d565b9050828103608084015280885180835260208301915060208160051b84010160208b015f5b83811015615393577fffffffffffffffffffffffffffffffffffffffffffffffffffffffffffffffe086840301855261537d838351614384565b6020958601959093509190910190600101615343565b505085810360a08701526153a7818b61515c565b93505050508560c08401528460e08401528281036101008401526153cb8185614384565b9c9b505050505050505050505050565b81810381811115610cb057610cb061505f565b7f4e487b71000000000000000000000000000000000000000000000000000000005f52601260045260245ffd5b60a081525f61542d60a0830188615116565b828103602084015261543f8188614c3d565b90508281036040840152615453818761515c565b60608401959095525050608001529392505050565b60c081525f61547a60c0830189615116565b828103602084015261548c8189614c3d565b905082810360408401526154a0818861515c565b60608401969096525050608081019290925260a0909101529392505050565b828152604060208201525f611b9d6040830184614384565b5f82518060208501845e5f920191825250919050565b8082028115828204841417610cb057610cb061505f565b60ff8181168382160190811115610cb057610cb061505f565b6001815b6001841115612da75780850481111561553c5761553c61505f565b600184161561554a57908102905b60019390931c928002615521565b5f8261556657506001610cb0565b8161557257505f610cb0565b81600181146155885760028114615592576155ae565b6001915050610cb0565b60ff8411156155a3576155a361505f565b50506001821b610cb0565b5060208310610133831016604e8410600b84101617156155d1575081810a610cb0565b6155fc7fffffffffffffffffffffffffffffffffffffffffffffffffffffffffffffffff848461551d565b807fffffffffffffffffffffffffffffffffffffffffffffffffffffffffffffffff0482111561562e5761562e61505f565b029392505050565b5f611ba060ff841683615558565b5f82615677577f4e487b71000000000000000000000000000000000000000000000000000000005f52601260045260245ffd5b50049056fea2646970667358221220277edeaf51cc69d729f70e0ecb265f9ffed972066a6cc5530bfb6b427dafa79564736f6c634300081e0033","linkReferences":{}},"methodIdentifiers":{"BALLOT_TYPEHASH()":"deaaa7cc","CLOCK_MODE()":"4bf5d7e9","COUNTING_MODE()":"dd4e2ba5","EXTENDED_BALLOT_TYPEHASH()":"2fe3e261","cancel(address[],uint256[],bytes[],bytes32)":"452115d6","castVote(uint256,uint8)":"56781388","castVoteBySig(uint256,uint8,address,bytes)":"8ff262e3","castVoteWithReason(uint256,uint8,string)":"7b3c71d3","castVoteWithReasonAndParams(uint256,uint8,string,bytes)":"5f398a14","castVoteWithReasonAndParamsBySig(uint256,uint8,address,string,bytes,bytes)":"5b8d0e0d","clock()":"91ddadf4","eip712Domain()":"84b0196e","execute(address[],uint256[],bytes[],bytes32)":"2656227d","finalizeProposalVotes(uint256,bytes)":"1db4eead","getProposalId(address[],uint256[],bytes[],bytes32)":"a8f8a668","getVotes(address,uint256)":"eb9019d4","getVotesWithParams(address,uint256,bytes)":"9a802a6d","governorRelay()":"f28b5a57","hasVoted(uint256,address)":"43859632","hashProposal(address[],uint256[],bytes[],bytes32)":"c59057e4","mapFinalizedProposalIdCounts(uint256)":"04430db3","name()":"06fdde03","nonces(address)":"7ecebe00","onERC1155BatchReceived(address,address,uint256[],uint256[],bytes)":"bc197c81","onERC1155Received(address,address,uint256,uint256,bytes)":"f23a6e61","onERC721Received(address,address,uint256,bytes)":"150b7a02","proposalDeadline(uint256)":"c01f9e37","proposalEta(uint256)":"ab58fb8e","proposalNeedsQueuing(uint256)":"a9a95294","proposalProposer(uint256)":"143489d0","proposalSnapshot(uint256)":"2d63f693","proposalThreshold()":"b58131b0","proposalVotes(uint256)":"544ffc9c","propose(address[],uint256[],bytes[],string)":"7d5e81e2","propose(address[],uint256[],bytes[],string,bytes)":"59e49815","queue(address[],uint256[],bytes[],bytes32)":"160cbed7","quorum(uint256)":"f8ce560a","quorumDenominator()":"97c3d334","quorumNumerator()":"a7713a70","quorumNumerator(uint256)":"60c4247f","recordFinalizedProposalVotes(uint256,uint256)":"5bfe5141","relay(address,uint256,bytes)":"c28bc2fa","state(uint256)":"3e4f49e6","supportsInterface(bytes4)":"01ffc9a7","timelock()":"d33219b4","token()":"fc0c546a","updateQuorumNumerator(uint256)":"06f3f9e6","updateTimelock(address)":"a890c910","version()":"54fd4d50","votingDelay()":"3932abb1","votingPeriod()":"02a251a3"},"id":88}