{"abi":[{"type":"constructor","inputs":[],"stateMutability":"nonpayable"},{"type":"function","name":"CLOCK_MODE","inputs":[],"outputs":[{"name":"","type":"string","internalType":"string"}],"stateMutability":"view"},{"type":"function","name":"DOMAIN_SEPARATOR","inputs":[],"outputs":[{"name":"","type":"bytes32","internalType":"bytes32"}],"stateMutability":"view"},{"type":"function","name":"allowance","inputs":[{"name":"owner","type":"address","internalType":"address"},{"name":"spender","type":"address","internalType":"address"}],"outputs":[{"name":"","type":"uint256","internalType":"uint256"}],"stateMutability":"view"},{"type":"function","name":"approve","inputs":[{"name":"spender","type":"address","internalType":"address"},{"name":"value","type":"uint256","internalType":"uint256"}],"outputs":[{"name":"","type":"bool","internalType":"bool"}],"stateMutability":"nonpayable"},{"type":"function","name":"balanceOf","inputs":[{"name":"account","type":"address","internalType":"address"}],"outputs":[{"name":"","type":"uint256","internalType":"uint256"}],"stateMutability":"view"},{"type":"function","name":"checkpoints","inputs":[{"name":"account","type":"address","internalType":"address"},{"name":"pos","type":"uint32","internalType":"uint32"}],"outputs":[{"name":"","type":"tuple","internalType":"struct Checkpoints.Checkpoint208","components":[{"name":"_key","type":"uint48","internalType":"uint48"},{"name":"_value","type":"uint208","internalType":"uint208"}]}],"stateMutability":"view"},{"type":"function","name":"clock","inputs":[],"outputs":[{"name":"","type":"uint48","internalType":"uint48"}],"stateMutability":"view"},{"type":"function","name":"decimals","inputs":[],"outputs":[{"name":"","type":"uint8","internalType":"uint8"}],"stateMutability":"view"},{"type":"function","name":"delegate","inputs":[{"name":"delegatee","type":"address","internalType":"address"}],"outputs":[],"stateMutability":"nonpayable"},{"type":"function","name":"delegateBySig","inputs":[{"name":"delegatee","type":"address","internalType":"address"},{"name":"nonce","type":"uint256","internalType":"uint256"},{"name":"expiry","type":"uint256","internalType":"uint256"},{"name":"v","type":"uint8","internalType":"uint8"},{"name":"r","type":"bytes32","internalType":"bytes32"},{"name":"s","type":"bytes32","internalType":"bytes32"}],"outputs":[],"stateMutability":"nonpayable"},{"type":"function","name":"delegates","inputs":[{"name":"account","type":"address","internalType":"address"}],"outputs":[{"name":"","type":"address","internalType":"address"}],"stateMutability":"view"},{"type":"function","name":"eip712Domain","inputs":[],"outputs":[{"name":"fields","type":"bytes1","internalType":"bytes1"},{"name":"name","type":"string","internalType":"string"},{"name":"version","type":"string","internalType":"string"},{"name":"chainId","type":"uint256","internalType":"uint256"},{"name":"verifyingContract","type":"address","internalType":"address"},{"name":"salt","type":"bytes32","internalType":"bytes32"},{"name":"extensions","type":"uint256[]","internalType":"uint256[]"}],"stateMutability":"view"},{"type":"function","name":"getPastTotalSupply","inputs":[{"name":"timepoint","type":"uint256","internalType":"uint256"}],"outputs":[{"name":"","type":"uint256","internalType":"uint256"}],"stateMutability":"view"},{"type":"function","name":"getPastVotes","inputs":[{"name":"account","type":"address","internalType":"address"},{"name":"timepoint","type":"uint256","internalType":"uint256"}],"outputs":[{"name":"","type":"uint256","internalType":"uint256"}],"stateMutability":"view"},{"type":"function","name":"getVotes","inputs":[{"name":"account","type":"address","internalType":"address"}],"outputs":[{"name":"","type":"uint256","internalType":"uint256"}],"stateMutability":"view"},{"type":"function","name":"mint","inputs":[{"name":"to","type":"address","internalType":"address"},{"name":"amount","type":"uint256","internalType":"uint256"}],"outputs":[],"stateMutability":"nonpayable"},{"type":"function","name":"name","inputs":[],"outputs":[{"name":"","type":"string","internalType":"string"}],"stateMutability":"view"},{"type":"function","name":"nonces","inputs":[{"name":"owner","type":"address","internalType":"address"}],"outputs":[{"name":"","type":"uint256","internalType":"uint256"}],"stateMutability":"view"},{"type":"function","name":"numCheckpoints","inputs":[{"name":"account","type":"address","internalType":"address"}],"outputs":[{"name":"","type":"uint32","internalType":"uint32"}],"stateMutability":"view"},{"type":"function","name":"permit","inputs":[{"name":"owner","type":"address","internalType":"address"},{"name":"spender","type":"address","internalType":"address"},{"name":"value","type":"uint256","internalType":"uint256"},{"name":"deadline","type":"uint256","internalType":"uint256"},{"name":"v","type":"uint8","internalType":"uint8"},{"name":"r","type":"bytes32","internalType":"bytes32"},{"name":"s","type":"bytes32","internalType":"bytes32"}],"outputs":[],"stateMutability":"nonpayable"},{"type":"function","name":"symbol","inputs":[],"outputs":[{"name":"","type":"string","internalType":"string"}],"stateMutability":"view"},{"type":"function","name":"totalSupply","inputs":[],"outputs":[{"name":"","type":"uint256","internalType":"uint256"}],"stateMutability":"view"},{"type":"function","name":"transfer","inputs":[{"name":"to","type":"address","internalType":"address"},{"name":"value","type":"uint256","internalType":"uint256"}],"outputs":[{"name":"","type":"bool","internalType":"bool"}],"stateMutability":"nonpayable"},{"type":"function","name":"transferFrom","inputs":[{"name":"from","type":"address","internalType":"address"},{"name":"to","type":"address","internalType":"address"},{"name":"value","type":"uint256","internalType":"uint256"}],"outputs":[{"name":"","type":"bool","internalType":"bool"}],"stateMutability":"nonpayable"},{"type":"event","name":"Approval","inputs":[{"name":"owner","type":"address","indexed":true,"internalType":"address"},{"name":"spender","type":"address","indexed":true,"internalType":"address"},{"name":"value","type":"uint256","indexed":false,"internalType":"uint256"}],"anonymous":false},{"type":"event","name":"DelegateChanged","inputs":[{"name":"delegator","type":"address","indexed":true,"internalType":"address"},{"name":"fromDelegate","type":"address","indexed":true,"internalType":"address"},{"name":"toDelegate","type":"address","indexed":true,"internalType":"address"}],"anonymous":false},{"type":"event","name":"DelegateVotesChanged","inputs":[{"name":"delegate","type":"address","indexed":true,"internalType":"address"},{"name":"previousVotes","type":"uint256","indexed":false,"internalType":"uint256"},{"name":"newVotes","type":"uint256","indexed":false,"internalType":"uint256"}],"anonymous":false},{"type":"event","name":"EIP712DomainChanged","inputs":[],"anonymous":false},{"type":"event","name":"Transfer","inputs":[{"name":"from","type":"address","indexed":true,"internalType":"address"},{"name":"to","type":"address","indexed":true,"internalType":"address"},{"name":"value","type":"uint256","indexed":false,"internalType":"uint256"}],"anonymous":false},{"type":"error","name":"CheckpointUnorderedInsertion","inputs":[]},{"type":"error","name":"ECDSAInvalidSignature","inputs":[]},{"type":"error","name":"ECDSAInvalidSignatureLength","inputs":[{"name":"length","type":"uint256","internalType":"uint256"}]},{"type":"error","name":"ECDSAInvalidSignatureS","inputs":[{"name":"s","type":"bytes32","internalType":"bytes32"}]},{"type":"error","name":"ERC20ExceededSafeSupply","inputs":[{"name":"increasedSupply","type":"uint256","internalType":"uint256"},{"name":"cap","type":"uint256","internalType":"uint256"}]},{"type":"error","name":"ERC20InsufficientAllowance","inputs":[{"name":"spender","type":"address","internalType":"address"},{"name":"allowance","type":"uint256","internalType":"uint256"},{"name":"needed","type":"uint256","internalType":"uint256"}]},{"type":"error","name":"ERC20InsufficientBalance","inputs":[{"name":"sender","type":"address","internalType":"address"},{"name":"balance","type":"uint256","internalType":"uint256"},{"name":"needed","type":"uint256","internalType":"uint256"}]},{"type":"error","name":"ERC20InvalidApprover","inputs":[{"name":"approver","type":"address","internalType":"address"}]},{"type":"error","name":"ERC20InvalidReceiver","inputs":[{"name":"receiver","type":"address","internalType":"address"}]},{"type":"error","name":"ERC20InvalidSender","inputs":[{"name":"sender","type":"address","internalType":"address"}]},{"type":"error","name":"ERC20InvalidSpender","inputs":[{"name":"spender","type":"address","internalType":"address"}]},{"type":"error","name":"ERC2612ExpiredSignature","inputs":[{"name":"deadline","type":"uint256","internalType":"uint256"}]},{"type":"error","name":"ERC2612InvalidSigner","inputs":[{"name":"signer","type":"address","internalType":"address"},{"name":"owner","type":"address","internalType":"address"}]},{"type":"error","name":"ERC5805FutureLookup","inputs":[{"name":"timepoint","type":"uint256","internalType":"uint256"},{"name":"clock","type":"uint48","internalType":"uint48"}]},{"type":"error","name":"ERC6372InconsistentClock","inputs":[]},{"type":"error","name":"InvalidAccountNonce","inputs":[{"name":"account","type":"address","internalType":"address"},{"name":"currentNonce","type":"uint256","internalType":"uint256"}]},{"type":"error","name":"InvalidShortString","inputs":[]},{"type":"error","name":"SafeCastOverflowedUintDowncast","inputs":[{"name":"bits","type":"uint8","internalType":"uint8"},{"name":"value","type":"uint256","internalType":"uint256"}]},{"type":"error","name":"StringTooLong","inputs":[{"name":"str","type":"string","internalType":"string"}]},{"type":"error","name":"VotesExpiredSignature","inputs":[{"name":"expiry","type":"uint256","internalType":"uint256"}]}],"bytecode":{"object":"0x610160604052348015610010575f5ffd5b506040518060400160405280600a8152602001692b37ba32b9aa37b5b2b760b11b81525080604051806040016040528060018152602001603160f81b8152506040518060400160405280600a8152602001692b37ba32b9aa37b5b2b760b11b8152506040518060400160405280600381526020016256544b60e81b815250816003908161009d91906108b2565b5060046100aa82826108b2565b506100ba91508390506005610178565b610120526100c9816006610178565b61014052815160208084019190912060e052815190820120610100524660a05261015560e05161010051604080517f8b73c3c69bb8fe3d512ecc4cf759cc79239f7b179b0ffacaa9a75d522b39400f60208201529081019290925260608201524660808201523060a08201525f9060c00160405160208183030381529060405280519060200120905090565b60805250503060c052506101733369d3c21bcecceda10000006101aa565b610a3c565b5f6020835110156101935761018c836101e7565b90506101a4565b8161019e84826108b2565b5060ff90505b92915050565b6001600160a01b0382166101d85760405163ec442f0560e01b81525f60048201526024015b60405180910390fd5b6101e35f8383610224565b5050565b5f5f829050601f81511115610211578260405163305a27a960e01b81526004016101cf919061096c565b805161021c826109a1565b179392505050565b61022f838383610234565b505050565b61023f83838361029a565b6001600160a01b03831661028f575f61025760025490565b90506001600160d01b038082111561028c57604051630e58ae9360e11b815260048101839052602481018290526044016101cf565b50505b61022f8383836103c0565b6001600160a01b0383166102c4578060025f8282546102b991906109d8565b909155506103349050565b6001600160a01b0383165f90815260208190526040902054818110156103165760405163391434e360e21b81526001600160a01b038516600482015260248101829052604481018390526064016101cf565b6001600160a01b0384165f9081526020819052604090209082900390555b6001600160a01b0382166103505760028054829003905561036e565b6001600160a01b0382165f9081526020819052604090208054820190555b816001600160a01b0316836001600160a01b03167fddf252ad1be2c89b69c2b068fc378daa952ba7f163c4a11628f55a4df523b3ef836040516103b391815260200190565b60405180910390a3505050565b6001600160a01b0383166103ee576103eb600a6109e561044860201b176103e68461045a565b610491565b50505b6001600160a01b03821661041757610414600a6109f06104c660201b176103e68461045a565b50505b6001600160a01b038381165f9081526008602052604080822054858416835291205461022f929182169116836104d1565b5f61045382846109eb565b9392505050565b5f6001600160d01b0382111561048d576040516306dfcc6560e41b815260d06004820152602481018390526044016101cf565b5090565b5f806104b961049e610621565b6104b16104aa8861062f565b868860201c565b879190610676565b915091505b935093915050565b5f6104538284610a0a565b816001600160a01b0316836001600160a01b0316141580156104f257505f81115b1561022f576001600160a01b0383161561058a576001600160a01b0383165f9081526009602090815260408220829161053891906104c6901b6109f0176103e68661045a565b6001600160d01b031691506001600160d01b03169150846001600160a01b03165f516020612fa55f395f51905f52838360405161057f929190918252602082015260400190565b60405180910390a250505b6001600160a01b0382161561022f576001600160a01b0382165f908152600960209081526040822082916105cb9190610448901b6109e5176103e68661045a565b6001600160d01b031691506001600160d01b03169150836001600160a01b03165f516020612fa55f395f51905f528383604051610612929190918252602082015260400190565b60405180910390a25050505050565b5f61062a610683565b905090565b80545f90801561066e5761065583610648600184610a29565b5f91825260209091200190565b54660100000000000090046001600160d01b0316610453565b5f9392505050565b5f806104b985858561068d565b5f61062a436107e9565b82545f908190801561078c575f6106a987610648600185610a29565b805490915065ffffffffffff80821691660100000000000090046001600160d01b03169088168211156106ef57604051632520601d60e01b815260040160405180910390fd5b8765ffffffffffff168265ffffffffffff160361072b57825465ffffffffffff1666010000000000006001600160d01b0389160217835561077e565b6040805180820190915265ffffffffffff808a1682526001600160d01b03808a1660208085019182528d54600181018f555f8f815291909120945191519092166601000000000000029216919091179101555b94508593506104be92505050565b50506040805180820190915265ffffffffffff80851682526001600160d01b0380851660208085019182528854600181018a555f8a81529182209551925190931666010000000000000291909316179201919091559050816104be565b5f65ffffffffffff82111561048d576040516306dfcc6560e41b815260306004820152602481018390526044016101cf565b634e487b7160e01b5f52604160045260245ffd5b600181811c9082168061084357607f821691505b60208210810361086157634e487b7160e01b5f52602260045260245ffd5b50919050565b601f82111561022f57805f5260205f20601f840160051c8101602085101561088c5750805b601f840160051c820191505b818110156108ab575f8155600101610898565b5050505050565b81516001600160401b038111156108cb576108cb61081b565b6108df816108d9845461082f565b84610867565b6020601f821160018114610911575f83156108fa5750848201515b5f19600385901b1c1916600184901b1784556108ab565b5f84815260208120601f198516915b828110156109405787850151825560209485019460019092019101610920565b508482101561095d57868401515f19600387901b60f8161c191681555b50505050600190811b01905550565b602081525f82518060208401528060208501604085015e5f604082850101526040601f19601f83011684010191505092915050565b80516020808301519190811015610861575f1960209190910360031b1b16919050565b634e487b7160e01b5f52601160045260245ffd5b808201808211156101a4576101a46109c4565b6001600160d01b0381811683821601908111156101a4576101a46109c4565b6001600160d01b0382811682821603908111156101a4576101a46109c4565b818103818111156101a4576101a46109c4565b60805160a05160c05160e051610100516101205161014051612518610a8d5f395f610f6d01525f610f4001525f610c6a01525f610c4201525f610b9d01525f610bc701525f610bf101526125185ff3fe608060405234801561000f575f5ffd5b506004361061018f575f3560e01c806370a08231116100dd5780639ab24eb011610088578063d505accf11610063578063d505accf146103ae578063dd62ed3e146103c1578063f1127ed814610406575f5ffd5b80639ab24eb014610375578063a9059cbb14610388578063c3cda5201461039b575f5ffd5b80638e539e8c116100b85780638e539e8c1461033b57806391ddadf41461034e57806395d89b411461036d575f5ffd5b806370a08231146102d85780637ecebe001461030d57806384b0196e14610320575f5ffd5b80633a46b1a81161013d578063587cde1e11610118578063587cde1e146102405780635c19a95c1461029d5780636fcfff45146102b0575f5ffd5b80633a46b1a81461021057806340c10f19146102235780634bf5d7e914610238575f5ffd5b806323b872dd1161016d57806323b872dd146101e6578063313ce567146101f95780633644e51514610208575f5ffd5b806306fdde0314610193578063095ea7b3146101b157806318160ddd146101d4575b5f5ffd5b61019b610458565b6040516101a89190612058565b60405180910390f35b6101c46101bf366004612092565b6104e8565b60405190151581526020016101a8565b6002545b6040519081526020016101a8565b6101c46101f43660046120ba565b610501565b604051601281526020016101a8565b6101d8610524565b6101d861021e366004612092565b610532565b610236610231366004612092565b61058c565b005b61019b61059a565b61027861024e3660046120f4565b73ffffffffffffffffffffffffffffffffffffffff9081165f908152600860205260409020541690565b60405173ffffffffffffffffffffffffffffffffffffffff90911681526020016101a8565b6102366102ab3660046120f4565b61062b565b6102c36102be3660046120f4565b610636565b60405163ffffffff90911681526020016101a8565b6101d86102e63660046120f4565b73ffffffffffffffffffffffffffffffffffffffff165f9081526020819052604090205490565b6101d861031b3660046120f4565b610640565b61032861064a565b6040516101a8979695949392919061210d565b6101d86103493660046121cc565b6106a8565b6103566106df565b60405165ffffffffffff90911681526020016101a8565b61019b6106e8565b6101d86103833660046120f4565b6106f7565b6101c4610396366004612092565b610724565b6102366103a93660046121f3565b610731565b6102366103bc366004612247565b610818565b6101d86103cf3660046122ad565b73ffffffffffffffffffffffffffffffffffffffff9182165f90815260016020908152604080832093909416825291909152205490565b6104196104143660046122de565b6109c1565b60408051825165ffffffffffff16815260209283015179ffffffffffffffffffffffffffffffffffffffffffffffffffff1692810192909252016101a8565b6060600380546104679061231b565b80601f01602080910402602001604051908101604052809291908181526020018280546104939061231b565b80156104de5780601f106104b5576101008083540402835291602001916104de565b820191905f5260205f20905b8154815290600101906020018083116104c157829003601f168201915b5050505050905090565b5f336104f58185856109fb565b60019150505b92915050565b5f3361050e858285610a0d565b610519858585610adb565b506001949350505050565b5f61052d610b84565b905090565b5f61056961053f83610cba565b73ffffffffffffffffffffffffffffffffffffffff85165f90815260096020526040902090610d21565b79ffffffffffffffffffffffffffffffffffffffffffffffffffff169392505050565b6105968282610de7565b5050565b60606105a4610e41565b65ffffffffffff166105b46106df565b65ffffffffffff16146105f3576040517f6ff0714000000000000000000000000000000000000000000000000000000000815260040160405180910390fd5b5060408051808201909152601d81527f6d6f64653d626c6f636b6e756d6265722666726f6d3d64656661756c74000000602082015290565b336105968183610e4b565b5f6104fb82610ee1565b5f6104fb82610f0f565b5f6060805f5f5f606061065b610f39565b610663610f66565b604080515f808252602082019092527f0f000000000000000000000000000000000000000000000000000000000000009b939a50919850469750309650945092509050565b5f6106bd6106b583610cba565b600a90610d21565b79ffffffffffffffffffffffffffffffffffffffffffffffffffff1692915050565b5f61052d610e41565b6060600480546104679061231b565b73ffffffffffffffffffffffffffffffffffffffff81165f9081526009602052604081206106bd90610f93565b5f336104f5818585610adb565b83421115610773576040517f4683af0e000000000000000000000000000000000000000000000000000000008152600481018590526024015b60405180910390fd5b604080517fe48329057bfd03d55e49b547132e39cffd9c1820ad7b9d4c5307691425d15adf602082015273ffffffffffffffffffffffffffffffffffffffff88169181019190915260608101869052608081018590525f906107f9906107f19060a00160405160208183030381529060405280519060200120610fe0565b858585611027565b90506108058187611053565b61080f8188610e4b565b50505050505050565b83421115610855576040517f627913020000000000000000000000000000000000000000000000000000000081526004810185905260240161076a565b5f7f6e71edae12b1b97f4d1f60370fef10105fa2faae0126114a169c64845d6126c98888886108ad8c73ffffffffffffffffffffffffffffffffffffffff165f90815260076020526040902080546001810190915590565b60408051602081019690965273ffffffffffffffffffffffffffffffffffffffff94851690860152929091166060840152608083015260a082015260c0810186905260e0016040516020818303038152906040528051906020012090505f61091482610fe0565b90505f61092382878787611027565b90508973ffffffffffffffffffffffffffffffffffffffff168173ffffffffffffffffffffffffffffffffffffffff16146109aa576040517f4b800e4600000000000000000000000000000000000000000000000000000000815273ffffffffffffffffffffffffffffffffffffffff80831660048301528b16602482015260440161076a565b6109b58a8a8a6109fb565b50505050505050505050565b604080518082019091525f80825260208201526109de83836110d8565b9392505050565b5f6109de8284612399565b5f6109de82846123cb565b610a088383836001611119565b505050565b73ffffffffffffffffffffffffffffffffffffffff8381165f908152600160209081526040808320938616835292905220547fffffffffffffffffffffffffffffffffffffffffffffffffffffffffffffffff811015610ad55781811015610ac7576040517ffb8f41b200000000000000000000000000000000000000000000000000000000815273ffffffffffffffffffffffffffffffffffffffff84166004820152602481018290526044810183905260640161076a565b610ad584848484035f611119565b50505050565b73ffffffffffffffffffffffffffffffffffffffff8316610b2a576040517f96c6fd1e0000000000000000000000000000000000000000000000000000000081525f600482015260240161076a565b73ffffffffffffffffffffffffffffffffffffffff8216610b79576040517fec442f050000000000000000000000000000000000000000000000000000000081525f600482015260240161076a565b610a0883838361125e565b5f3073ffffffffffffffffffffffffffffffffffffffff7f000000000000000000000000000000000000000000000000000000000000000016148015610be957507f000000000000000000000000000000000000000000000000000000000000000046145b15610c1357507f000000000000000000000000000000000000000000000000000000000000000090565b61052d604080517f8b73c3c69bb8fe3d512ecc4cf759cc79239f7b179b0ffacaa9a75d522b39400f60208201527f0000000000000000000000000000000000000000000000000000000000000000918101919091527f000000000000000000000000000000000000000000000000000000000000000060608201524660808201523060a08201525f9060c00160405160208183030381529060405280519060200120905090565b5f5f610cc46106df565b90508065ffffffffffff168310610d18576040517fecd3f81e0000000000000000000000000000000000000000000000000000000081526004810184905265ffffffffffff8216602482015260440161076a565b6109de83611269565b81545f9081816005811115610d7d575f610d3a846112b8565b610d4490856123fd565b5f8881526020902090915081015465ffffffffffff9081169087161015610d6d57809150610d7b565b610d78816001612410565b92505b505b5f610d8a8787858561141d565b90508015610dda57610dae87610da16001846123fd565b5f91825260209091200190565b546601000000000000900479ffffffffffffffffffffffffffffffffffffffffffffffffffff16610ddc565b5f5b979650505050505050565b73ffffffffffffffffffffffffffffffffffffffff8216610e36576040517fec442f050000000000000000000000000000000000000000000000000000000081525f600482015260240161076a565b6105965f838361125e565b5f61052d43611269565b73ffffffffffffffffffffffffffffffffffffffff8281165f8181526008602052604080822080548686167fffffffffffffffffffffffff0000000000000000000000000000000000000000821681179092559151919094169392849290917f3134e8a2e6d97e929a7e54011ea5485d7d196dd5f0ba4d4ef95803e8e3fc257f9190a4610a088183610edc8661147c565b6114a6565b73ffffffffffffffffffffffffffffffffffffffff81165f908152600960205260408120546104fb906116c3565b73ffffffffffffffffffffffffffffffffffffffff81165f908152600760205260408120546104fb565b606061052d7f0000000000000000000000000000000000000000000000000000000000000000600561170c565b606061052d7f0000000000000000000000000000000000000000000000000000000000000000600661170c565b80545f908015610fd857610fac83610da16001846123fd565b546601000000000000900479ffffffffffffffffffffffffffffffffffffffffffffffffffff166109de565b5f9392505050565b5f6104fb610fec610b84565b836040517f19010000000000000000000000000000000000000000000000000000000000008152600281019290925260228201526042902090565b5f5f5f5f611037888888886117b5565b92509250925061104782826118a8565b50909695505050505050565b73ffffffffffffffffffffffffffffffffffffffff82165f908152600760205260409020805460018101909155818114610a08576040517f752d88c000000000000000000000000000000000000000000000000000000000815273ffffffffffffffffffffffffffffffffffffffff841660048201526024810182905260440161076a565b604080518082019091525f808252602082015273ffffffffffffffffffffffffffffffffffffffff83165f9081526009602052604090206109de90836119ab565b73ffffffffffffffffffffffffffffffffffffffff8416611168576040517fe602df050000000000000000000000000000000000000000000000000000000081525f600482015260240161076a565b73ffffffffffffffffffffffffffffffffffffffff83166111b7576040517f94280d620000000000000000000000000000000000000000000000000000000081525f600482015260240161076a565b73ffffffffffffffffffffffffffffffffffffffff8085165f9081526001602090815260408083209387168352929052208290558015610ad5578273ffffffffffffffffffffffffffffffffffffffff168473ffffffffffffffffffffffffffffffffffffffff167f8c5be1e5ebec7d5bd14f71427d1e84f3dd0314c0f7b2291e5b200ac8c7c3b9258460405161125091815260200190565b60405180910390a350505050565b610a08838383611a2e565b5f65ffffffffffff8211156112b4576040517f6dfcc650000000000000000000000000000000000000000000000000000000008152603060048201526024810183905260440161076a565b5090565b5f600182116112c5575090565b81600170010000000000000000000000000000000082106112eb5760809190911c9060401b5b6801000000000000000082106113065760409190911c9060201b5b640100000000821061131d5760209190911c9060101b5b6201000082106113325760109190911c9060081b5b61010082106113465760089190911c9060041b5b601082106113595760049190911c9060021b5b600482106113655760011b5b600302600190811c9081858161137d5761137d612423565b048201901c9050600181858161139557611395612423565b048201901c905060018185816113ad576113ad612423565b048201901c905060018185816113c5576113c5612423565b048201901c905060018185816113dd576113dd612423565b048201901c905060018185816113f5576113f5612423565b048201901c905061141481858161140e5761140e612423565b04821190565b90039392505050565b5f5b81831015611474575f6114328484611acd565b5f8781526020902090915065ffffffffffff86169082015465ffffffffffff1611156114605780925061146e565b61146b816001612410565b93505b5061141f565b509392505050565b73ffffffffffffffffffffffffffffffffffffffff81165f908152602081905260408120546104fb565b8173ffffffffffffffffffffffffffffffffffffffff168373ffffffffffffffffffffffffffffffffffffffff16141580156114e157505f81115b15610a085773ffffffffffffffffffffffffffffffffffffffff8316156115d55773ffffffffffffffffffffffffffffffffffffffff83165f908152600960205260408120819061153d906109f061153886611ae7565b611b46565b79ffffffffffffffffffffffffffffffffffffffffffffffffffff16915079ffffffffffffffffffffffffffffffffffffffffffffffffffff1691508473ffffffffffffffffffffffffffffffffffffffff167fdec2bacdd2f05b59de34da9b523dff8be42e5e38e818c82fdb0bae774387a72483836040516115ca929190918252602082015260400190565b60405180910390a250505b73ffffffffffffffffffffffffffffffffffffffff821615610a085773ffffffffffffffffffffffffffffffffffffffff82165f9081526009602052604081208190611627906109e561153886611ae7565b79ffffffffffffffffffffffffffffffffffffffffffffffffffff16915079ffffffffffffffffffffffffffffffffffffffffffffffffffff1691508373ffffffffffffffffffffffffffffffffffffffff167fdec2bacdd2f05b59de34da9b523dff8be42e5e38e818c82fdb0bae774387a72483836040516116b4929190918252602082015260400190565b60405180910390a25050505050565b5f63ffffffff8211156112b4576040517f6dfcc650000000000000000000000000000000000000000000000000000000008152602060048201526024810183905260440161076a565b606060ff83146117265761171f83611b7e565b90506104fb565b8180546117329061231b565b80601f016020809104026020016040519081016040528092919081815260200182805461175e9061231b565b80156117a95780601f10611780576101008083540402835291602001916117a9565b820191905f5260205f20905b81548152906001019060200180831161178c57829003601f168201915b505050505090506104fb565b5f80807f7fffffffffffffffffffffffffffffff5d576e7357a4501ddfe92f46681b20a08411156117ee57505f9150600390508261189e565b604080515f808252602082018084528a905260ff891692820192909252606081018790526080810186905260019060a0016020604051602081039080840390855afa15801561183f573d5f5f3e3d5ffd5b50506040517fffffffffffffffffffffffffffffffffffffffffffffffffffffffffffffffe0015191505073ffffffffffffffffffffffffffffffffffffffff811661189557505f92506001915082905061189e565b92505f91508190505b9450945094915050565b5f8260038111156118bb576118bb612450565b036118c4575050565b60018260038111156118d8576118d8612450565b0361190f576040517ff645eedf00000000000000000000000000000000000000000000000000000000815260040160405180910390fd5b600282600381111561192357611923612450565b0361195d576040517ffce698f70000000000000000000000000000000000000000000000000000000081526004810182905260240161076a565b600382600381111561197157611971612450565b03610596576040517fd78bce0c0000000000000000000000000000000000000000000000000000000081526004810182905260240161076a565b604080518082019091525f8082526020820152825f018263ffffffff16815481106119d8576119d861247d565b5f9182526020918290206040805180820190915291015465ffffffffffff811682526601000000000000900479ffffffffffffffffffffffffffffffffffffffffffffffffffff16918101919091529392505050565b611a39838383611bbb565b73ffffffffffffffffffffffffffffffffffffffff8316611ac2575f611a5e60025490565b905079ffffffffffffffffffffffffffffffffffffffffffffffffffff80821115611abf576040517f1cb15d26000000000000000000000000000000000000000000000000000000008152600481018390526024810182905260440161076a565b50505b610a08838383611d62565b5f611adb60028484186124aa565b6109de90848416612410565b5f79ffffffffffffffffffffffffffffffffffffffffffffffffffff8211156112b4576040517f6dfcc65000000000000000000000000000000000000000000000000000000000815260d060048201526024810183905260440161076a565b5f5f611b71611b536106df565b611b69611b5f88610f93565b868863ffffffff16565b879190611dfe565b915091505b935093915050565b60605f611b8a83611e0b565b6040805160208082528183019092529192505f91906020820181803683375050509182525060208101929092525090565b73ffffffffffffffffffffffffffffffffffffffff8316611bf2578060025f828254611be79190612410565b90915550611ca29050565b73ffffffffffffffffffffffffffffffffffffffff83165f9081526020819052604090205481811015611c77576040517fe450d38c00000000000000000000000000000000000000000000000000000000815273ffffffffffffffffffffffffffffffffffffffff85166004820152602481018290526044810183905260640161076a565b73ffffffffffffffffffffffffffffffffffffffff84165f9081526020819052604090209082900390555b73ffffffffffffffffffffffffffffffffffffffff8216611ccb57600280548290039055611cf6565b73ffffffffffffffffffffffffffffffffffffffff82165f9081526020819052604090208054820190555b8173ffffffffffffffffffffffffffffffffffffffff168373ffffffffffffffffffffffffffffffffffffffff167fddf252ad1be2c89b69c2b068fc378daa952ba7f163c4a11628f55a4df523b3ef83604051611d5591815260200190565b60405180910390a3505050565b73ffffffffffffffffffffffffffffffffffffffff8316611d9157611d8e600a6109e561153884611ae7565b50505b73ffffffffffffffffffffffffffffffffffffffff8216611dc057611dbd600a6109f061153884611ae7565b50505b73ffffffffffffffffffffffffffffffffffffffff8381165f90815260086020526040808220548584168352912054610a08929182169116836114a6565b5f80611b71858585611e4b565b5f60ff8216601f8111156104fb576040517fb3512b0c00000000000000000000000000000000000000000000000000000000815260040160405180910390fd5b82545f9081908015611f9c575f611e6787610da16001856123fd565b805490915065ffffffffffff808216916601000000000000900479ffffffffffffffffffffffffffffffffffffffffffffffffffff16908816821115611ed9576040517f2520601d00000000000000000000000000000000000000000000000000000000815260040160405180910390fd5b8765ffffffffffff168265ffffffffffff1603611f2857825465ffffffffffff16660100000000000079ffffffffffffffffffffffffffffffffffffffffffffffffffff891602178355611f8e565b6040805180820190915265ffffffffffff808a16825279ffffffffffffffffffffffffffffffffffffffffffffffffffff808a1660208085019182528d54600181018f555f8f815291909120945191519092166601000000000000029216919091179101555b9450859350611b7692505050565b50506040805180820190915265ffffffffffff808516825279ffffffffffffffffffffffffffffffffffffffffffffffffffff80851660208085019182528854600181018a555f8a8152918220955192519093166601000000000000029190931617920191909155905081611b76565b5f81518084528060208401602086015e5f6020828601015260207fffffffffffffffffffffffffffffffffffffffffffffffffffffffffffffffe0601f83011685010191505092915050565b602081525f6109de602083018461200c565b803573ffffffffffffffffffffffffffffffffffffffff8116811461208d575f5ffd5b919050565b5f5f604083850312156120a3575f5ffd5b6120ac8361206a565b946020939093013593505050565b5f5f5f606084860312156120cc575f5ffd5b6120d58461206a565b92506120e36020850161206a565b929592945050506040919091013590565b5f60208284031215612104575f5ffd5b6109de8261206a565b7fff000000000000000000000000000000000000000000000000000000000000008816815260e060208201525f61214760e083018961200c565b8281036040840152612159818961200c565b6060840188905273ffffffffffffffffffffffffffffffffffffffff8716608085015260a0840186905283810360c0850152845180825260208087019350909101905f5b818110156121bb57835183526020938401939092019160010161219d565b50909b9a5050505050505050505050565b5f602082840312156121dc575f5ffd5b5035919050565b803560ff8116811461208d575f5ffd5b5f5f5f5f5f5f60c08789031215612208575f5ffd5b6122118761206a565b9550602087013594506040870135935061222d606088016121e3565b9598949750929560808101359460a0909101359350915050565b5f5f5f5f5f5f5f60e0888a03121561225d575f5ffd5b6122668861206a565b96506122746020890161206a565b95506040880135945060608801359350612290608089016121e3565b9699959850939692959460a0840135945060c09093013592915050565b5f5f604083850312156122be575f5ffd5b6122c78361206a565b91506122d56020840161206a565b90509250929050565b5f5f604083850312156122ef575f5ffd5b6122f88361206a565b9150602083013563ffffffff81168114612310575f5ffd5b809150509250929050565b600181811c9082168061232f57607f821691505b602082108103612366577f4e487b71000000000000000000000000000000000000000000000000000000005f52602260045260245ffd5b50919050565b7f4e487b71000000000000000000000000000000000000000000000000000000005f52601160045260245ffd5b79ffffffffffffffffffffffffffffffffffffffffffffffffffff81811683821601908111156104fb576104fb61236c565b79ffffffffffffffffffffffffffffffffffffffffffffffffffff82811682821603908111156104fb576104fb61236c565b818103818111156104fb576104fb61236c565b808201808211156104fb576104fb61236c565b7f4e487b71000000000000000000000000000000000000000000000000000000005f52601260045260245ffd5b7f4e487b71000000000000000000000000000000000000000000000000000000005f52602160045260245ffd5b7f4e487b71000000000000000000000000000000000000000000000000000000005f52603260045260245ffd5b5f826124dd577f4e487b71000000000000000000000000000000000000000000000000000000005f52601260045260245ffd5b50049056fea26469706673582212206466fc1742fe9f505d1a730c27ed5595382982b5711d3213cfec1746d9357da264736f6c634300081e0033dec2bacdd2f05b59de34da9b523dff8be42e5e38e818c82fdb0bae774387a724","linkReferences":{}},"methodIdentifiers":{"CLOCK_MODE()":"4bf5d7e9","DOMAIN_SEPARATOR()":"3644e515","allowance(address,address)":"dd62ed3e","approve(address,uint256)":"095ea7b3","balanceOf(address)":"70a08231","checkpoints(address,uint32)":"f1127ed8","clock()":"91ddadf4","decimals()":"313ce567","delegate(address)":"5c19a95c","delegateBySig(address,uint256,uint256,uint8,bytes32,bytes32)":"c3cda520","delegates(address)":"587cde1e","eip712Domain()":"84b0196e","getPastTotalSupply(uint256)":"8e539e8c","getPastVotes(address,uint256)":"3a46b1a8","getVotes(address)":"9ab24eb0","mint(address,uint256)":"40c10f19","name()":"06fdde03","nonces(address)":"7ecebe00","numCheckpoints(address)":"6fcfff45","permit(address,address,uint256,uint256,uint8,bytes32,bytes32)":"d505accf","symbol()":"95d89b41","totalSupply()":"18160ddd","transfer(address,uint256)":"a9059cbb","transferFrom(address,address,uint256)":"23b872dd"},"id":89}