{"abi":[{"type":"constructor","inputs":[{"name":"_endpoint","type":"address","internalType":"address"},{"name":"_votingToken","type":"address","internalType":"address"},{"name":"_governorChainId","type":"uint256","internalType":"uint256"}],"stateMutability":"nonpayable"},{"type":"function","name":"READ_CHANNEL","inputs":[],"outputs":[{"name":"","type":"uint32","internalType":"uint32"}],"stateMutability":"view"},{"type":"function","name":"READ_CHANNEL_EID_THRESHOLD","inputs":[],"outputs":[{"name":"","type":"uint32","internalType":"uint32"}],"stateMutability":"view"},{"type":"function","name":"READ_MSG_TYPE","inputs":[],"outputs":[{"name":"","type":"uint16","internalType":"uint16"}],"stateMutability":"view"},{"type":"function","name":"allowInitializePath","inputs":[{"name":"origin","type":"tuple","internalType":"struct Origin","components":[{"name":"srcEid","type":"uint32","internalType":"uint32"},{"name":"sender","type":"bytes32","internalType":"bytes32"},{"name":"nonce","type":"uint64","internalType":"uint64"}]}],"outputs":[{"name":"","type":"bool","internalType":"bool"}],"stateMutability":"view"},{"type":"function","name":"combineOptions","inputs":[{"name":"_eid","type":"uint32","internalType":"uint32"},{"name":"_msgType","type":"uint16","internalType":"uint16"},{"name":"_extraOptions","type":"bytes","internalType":"bytes"}],"outputs":[{"name":"","type":"bytes","internalType":"bytes"}],"stateMutability":"view"},{"type":"function","name":"endpoint","inputs":[],"outputs":[{"name":"","type":"address","internalType":"contract ILayerZeroEndpointV2"}],"stateMutability":"view"},{"type":"function","name":"enforcedOptions","inputs":[{"name":"eid","type":"uint32","internalType":"uint32"},{"name":"msgType","type":"uint16","internalType":"uint16"}],"outputs":[{"name":"enforcedOption","type":"bytes","internalType":"bytes"}],"stateMutability":"view"},{"type":"function","name":"getVoteWeight","inputs":[{"name":"proposalId","type":"bytes32","internalType":"bytes32"},{"name":"voter","type":"address","internalType":"address"}],"outputs":[{"name":"","type":"uint256","internalType":"uint256"}],"stateMutability":"view"},{"type":"function","name":"getVotesLzRead","inputs":[{"name":"proposalId","type":"bytes32","internalType":"bytes32"},{"name":"extraOptions","type":"bytes","internalType":"bytes"}],"outputs":[{"name":"receipt","type":"tuple","internalType":"struct MessagingReceipt","components":[{"name":"guid","type":"bytes32","internalType":"bytes32"},{"name":"nonce","type":"uint64","internalType":"uint64"},{"name":"fee","type":"tuple","internalType":"struct MessagingFee","components":[{"name":"nativeFee","type":"uint256","internalType":"uint256"},{"name":"lzTokenFee","type":"uint256","internalType":"uint256"}]}]}],"stateMutability":"payable"},{"type":"function","name":"governorChainId","inputs":[],"outputs":[{"name":"","type":"uint32","internalType":"uint32"}],"stateMutability":"view"},{"type":"function","name":"hasVoted","inputs":[{"name":"","type":"bytes32","internalType":"bytes32"},{"name":"","type":"address","internalType":"address"}],"outputs":[{"name":"","type":"bool","internalType":"bool"}],"stateMutability":"view"},{"type":"function","name":"isComposeMsgSender","inputs":[{"name":"","type":"tuple","internalType":"struct Origin","components":[{"name":"srcEid","type":"uint32","internalType":"uint32"},{"name":"sender","type":"bytes32","internalType":"bytes32"},{"name":"nonce","type":"uint64","internalType":"uint64"}]},{"name":"","type":"bytes","internalType":"bytes"},{"name":"_sender","type":"address","internalType":"address"}],"outputs":[{"name":"","type":"bool","internalType":"bool"}],"stateMutability":"view"},{"type":"function","name":"lzReceive","inputs":[{"name":"_origin","type":"tuple","internalType":"struct Origin","components":[{"name":"srcEid","type":"uint32","internalType":"uint32"},{"name":"sender","type":"bytes32","internalType":"bytes32"},{"name":"nonce","type":"uint64","internalType":"uint64"}]},{"name":"_guid","type":"bytes32","internalType":"bytes32"},{"name":"_message","type":"bytes","internalType":"bytes"},{"name":"_executor","type":"address","internalType":"address"},{"name":"_extraData","type":"bytes","internalType":"bytes"}],"outputs":[],"stateMutability":"payable"},{"type":"function","name":"nextNonce","inputs":[{"name":"","type":"uint32","internalType":"uint32"},{"name":"","type":"bytes32","internalType":"bytes32"}],"outputs":[{"name":"nonce","type":"uint64","internalType":"uint64"}],"stateMutability":"view"},{"type":"function","name":"oAppVersion","inputs":[],"outputs":[{"name":"senderVersion","type":"uint64","internalType":"uint64"},{"name":"receiverVersion","type":"uint64","internalType":"uint64"}],"stateMutability":"pure"},{"type":"function","name":"owner","inputs":[],"outputs":[{"name":"","type":"address","internalType":"address"}],"stateMutability":"view"},{"type":"function","name":"peers","inputs":[{"name":"eid","type":"uint32","internalType":"uint32"}],"outputs":[{"name":"peer","type":"bytes32","internalType":"bytes32"}],"stateMutability":"view"},{"type":"function","name":"pendingVotes","inputs":[{"name":"","type":"bytes32","internalType":"bytes32"}],"outputs":[{"name":"proposalId","type":"bytes32","internalType":"bytes32"},{"name":"voter","type":"address","internalType":"address"}],"stateMutability":"view"},{"type":"function","name":"proposalSnapshotEndTimes","inputs":[{"name":"","type":"bytes32","internalType":"bytes32"}],"outputs":[{"name":"","type":"uint256","internalType":"uint256"}],"stateMutability":"view"},{"type":"function","name":"proposalSnapshots","inputs":[{"name":"","type":"bytes32","internalType":"bytes32"}],"outputs":[{"name":"","type":"uint256","internalType":"uint256"}],"stateMutability":"view"},{"type":"function","name":"quote","inputs":[{"name":"startTime","type":"uint256","internalType":"uint256"},{"name":"_options","type":"bytes","internalType":"bytes"}],"outputs":[{"name":"","type":"uint256","internalType":"uint256"},{"name":"","type":"uint256","internalType":"uint256"}],"stateMutability":"view"},{"type":"function","name":"renounceOwnership","inputs":[],"outputs":[],"stateMutability":"nonpayable"},{"type":"function","name":"setDelegate","inputs":[{"name":"_delegate","type":"address","internalType":"address"}],"outputs":[],"stateMutability":"nonpayable"},{"type":"function","name":"setEnforcedOptions","inputs":[{"name":"_enforcedOptions","type":"tuple[]","internalType":"struct EnforcedOptionParam[]","components":[{"name":"eid","type":"uint32","internalType":"uint32"},{"name":"msgType","type":"uint16","internalType":"uint16"},{"name":"options","type":"bytes","internalType":"bytes"}]}],"outputs":[],"stateMutability":"nonpayable"},{"type":"function","name":"setPeer","inputs":[{"name":"_eid","type":"uint32","internalType":"uint32"},{"name":"_peer","type":"bytes32","internalType":"bytes32"}],"outputs":[],"stateMutability":"nonpayable"},{"type":"function","name":"setReadChannel","inputs":[{"name":"_channelId","type":"uint32","internalType":"uint32"},{"name":"_active","type":"bool","internalType":"bool"}],"outputs":[],"stateMutability":"nonpayable"},{"type":"function","name":"totalNumVotes","inputs":[{"name":"","type":"bytes32","internalType":"bytes32"}],"outputs":[{"name":"","type":"uint256","internalType":"uint256"}],"stateMutability":"view"},{"type":"function","name":"transferOwnership","inputs":[{"name":"newOwner","type":"address","internalType":"address"}],"outputs":[],"stateMutability":"nonpayable"},{"type":"function","name":"voteWeight","inputs":[{"name":"","type":"bytes32","internalType":"bytes32"},{"name":"","type":"address","internalType":"address"}],"outputs":[{"name":"","type":"uint256","internalType":"uint256"}],"stateMutability":"view"},{"type":"function","name":"votingToken","inputs":[],"outputs":[{"name":"","type":"address","internalType":"address"}],"stateMutability":"view"},{"type":"event","name":"EnforcedOptionSet","inputs":[{"name":"_enforcedOptions","type":"tuple[]","indexed":false,"internalType":"struct EnforcedOptionParam[]","components":[{"name":"eid","type":"uint32","internalType":"uint32"},{"name":"msgType","type":"uint16","internalType":"uint16"},{"name":"options","type":"bytes","internalType":"bytes"}]}],"anonymous":false},{"type":"event","name":"LzVoteRequested","inputs":[{"name":"readId","type":"bytes32","indexed":false,"internalType":"bytes32"},{"name":"proposalId","type":"bytes32","indexed":false,"internalType":"bytes32"},{"name":"voter","type":"address","indexed":false,"internalType":"address"}],"anonymous":false},{"type":"event","name":"OwnershipTransferred","inputs":[{"name":"previousOwner","type":"address","indexed":true,"internalType":"address"},{"name":"newOwner","type":"address","indexed":true,"internalType":"address"}],"anonymous":false},{"type":"event","name":"PeerSet","inputs":[{"name":"eid","type":"uint32","indexed":false,"internalType":"uint32"},{"name":"peer","type":"bytes32","indexed":false,"internalType":"bytes32"}],"anonymous":false},{"type":"event","name":"ProposalRegistered","inputs":[{"name":"proposalId","type":"bytes32","indexed":true,"internalType":"bytes32"},{"name":"startTime","type":"uint256","indexed":false,"internalType":"uint256"},{"name":"endTime","type":"uint256","indexed":false,"internalType":"uint256"}],"anonymous":false},{"type":"event","name":"VoteCast","inputs":[{"name":"voter","type":"address","indexed":true,"internalType":"address"},{"name":"proposalId","type":"uint256","indexed":false,"internalType":"uint256"},{"name":"support","type":"uint8","indexed":false,"internalType":"uint8"},{"name":"weight","type":"uint256","indexed":false,"internalType":"uint256"},{"name":"reason","type":"string","indexed":false,"internalType":"string"}],"anonymous":false},{"type":"error","name":"InvalidDelegate","inputs":[]},{"type":"error","name":"InvalidEndpointCall","inputs":[]},{"type":"error","name":"InvalidOptions","inputs":[{"name":"options","type":"bytes","internalType":"bytes"}]},{"type":"error","name":"LzTokenUnavailable","inputs":[]},{"type":"error","name":"NoPeer","inputs":[{"name":"eid","type":"uint32","internalType":"uint32"}]},{"type":"error","name":"NotEnoughNative","inputs":[{"name":"msgValue","type":"uint256","internalType":"uint256"}]},{"type":"error","name":"OnlyEndpoint","inputs":[{"name":"addr","type":"address","internalType":"address"}]},{"type":"error","name":"OnlyPeer","inputs":[{"name":"eid","type":"uint32","internalType":"uint32"},{"name":"sender","type":"bytes32","internalType":"bytes32"}]},{"type":"error","name":"OwnableInvalidOwner","inputs":[{"name":"owner","type":"address","internalType":"address"}]},{"type":"error","name":"OwnableUnauthorizedAccount","inputs":[{"name":"account","type":"address","internalType":"address"}]},{"type":"error","name":"SafeCastOverflowedUintDowncast","inputs":[{"name":"bits","type":"uint8","internalType":"uint8"},{"name":"value","type":"uint256","internalType":"uint256"}]},{"type":"error","name":"SafeERC20FailedOperation","inputs":[{"name":"token","type":"address","internalType":"address"}]}],"bytecode":{"object":"0x60e060405234801561000f575f5ffd5b50604051612db8380380612db883398101604081905261002e9161017a565b823381818181808061005957604051631e4fbdf760e01b81525f600482015260240160405180910390fd5b61006281610110565b506001600160a01b03808316608052811661009057604051632d618d8160e21b815260040160405180910390fd5b60805160405163ca5eb5e160e01b81526001600160a01b0383811660048301529091169063ca5eb5e1906024015f604051808303815f87803b1580156100d4575f5ffd5b505af11580156100e6573d5f5f3e3d5ffd5b5050506001600160a01b0390981660a05250505063ffffffff90931660c052506101b39350505050565b5f80546001600160a01b038381166001600160a01b0319831681178455604051919092169283917f8be0079c531659141344cd1fd0a4f28419497f9722a3daafe3b4186f6b6457e09190a35050565b80516001600160a01b0381168114610175575f5ffd5b919050565b5f5f5f6060848603121561018c575f5ffd5b6101958461015f565b92506101a36020850161015f565b9150604084015190509250925092565b60805160a05160c051612b9c61021c5f395f81816106300152818161091b01526112bf01525f8181610524015261130801525f818161028c0152818161073f01528181610bd701528181611388015281816115e001528181611b410152611c380152612b9c5ff3fe6080604052600436106101c5575f3560e01c8063aadc3b72116100f2578063ca5eb5e111610092578063e8feb14311610062578063e8feb143146106c9578063f0a9e481146106e0578063f2fde38b146106ff578063ff7bd03d1461071e575f5ffd5b8063ca5eb5e114610600578063d0473d4a1461061f578063d94a406114610652578063e8d3c1661461067d575f5ffd5b8063b98bd070116100cd578063b98bd07014610571578063bb0b6a5314610590578063bc70b354146105bb578063c1bd92e3146105da575f5ffd5b8063aadc3b72146104da578063b034012314610513578063b169961714610546575f5ffd5b8063715018a61161016857806382413eac1161013857806382413eac146103fe578063833fc0401461042d57806389ebb5631461047b5780638da5cb5b146104b1575f5ffd5b8063715018a61461030c57806377d2b771146103205780637a65adba146103545780637d25a05e146103c6575f5ffd5b80633859d937116101a35780633859d937146102235780635535d4611461024f5780635e280f111461027b5780636fde063c146102d3575f5ffd5b806313137d65146101c957806317442b70146101de5780633400288b14610204575b5f5ffd5b6101dc6101d7366004611f49565b61073d565b005b3480156101e9575f5ffd5b50604080516001815260026020820152015b60405180910390f35b34801561020f575f5ffd5b506101dc61021e366004611ffd565b61083c565b34801561022e575f5ffd5b5061023a63ffffffff81565b60405163ffffffff90911681526020016101fb565b34801561025a575f5ffd5b5061026e610269366004612036565b610852565b6040516101fb91906120b3565b348015610286575f5ffd5b506102ae7f000000000000000000000000000000000000000000000000000000000000000081565b60405173ffffffffffffffffffffffffffffffffffffffff90911681526020016101fb565b3480156102de575f5ffd5b506102fe6102ed3660046120cc565b60076020525f908152604090205481565b6040519081526020016101fb565b348015610317575f5ffd5b506101dc6108f4565b34801561032b575f5ffd5b5061033f61033a3660046120e3565b610907565b604080519283526020830191909152016101fb565b34801561035f575f5ffd5b5061039c61036e3660046120cc565b60036020525f90815260409020805460019091015473ffffffffffffffffffffffffffffffffffffffff1682565b6040805192835273ffffffffffffffffffffffffffffffffffffffff9091166020830152016101fb565b3480156103d1575f5ffd5b506103e56103e0366004611ffd565b61098c565b60405167ffffffffffffffff90911681526020016101fb565b348015610409575f5ffd5b5061041d61041836600461212b565b610994565b60405190151581526020016101fb565b348015610438575f5ffd5b506102fe61044736600461218e565b5f91825260046020908152604080842073ffffffffffffffffffffffffffffffffffffffff93909316845291905290205490565b348015610486575f5ffd5b506102fe61049536600461218e565b600460209081525f928352604080842090915290825290205481565b3480156104bc575f5ffd5b505f5473ffffffffffffffffffffffffffffffffffffffff166102ae565b3480156104e5575f5ffd5b5061041d6104f436600461218e565b600660209081525f928352604080842090915290825290205460ff1681565b34801561051e575f5ffd5b506102ae7f000000000000000000000000000000000000000000000000000000000000000081565b348015610551575f5ffd5b506102fe6105603660046120cc565b60086020525f908152604090205481565b34801561057c575f5ffd5b506101dc61058b3660046121bc565b6109b6565b34801561059b575f5ffd5b506102fe6105aa36600461222d565b60016020525f908152604090205481565b3480156105c6575f5ffd5b5061026e6105d5366004612246565b6109d0565b3480156105e5575f5ffd5b506105ed5f81565b60405161ffff90911681526020016101fb565b34801561060b575f5ffd5b506101dc61061a3660046122a3565b610b8a565b34801561062a575f5ffd5b5061023a7f000000000000000000000000000000000000000000000000000000000000000081565b34801561065d575f5ffd5b506102fe61066c3660046120cc565b60056020525f908152604090205481565b61069061068b3660046120e3565b610c31565b604080518251815260208084015167ffffffffffffffff16818301529282015180519282019290925291015160608201526080016101fb565b3480156106d4575f5ffd5b5061023a63fffff9be81565b3480156106eb575f5ffd5b506101dc6106fa3660046122be565b610f64565b34801561070a575f5ffd5b506101dc6107193660046122a3565b610f81565b348015610729575f5ffd5b5061041d6107383660046122ec565b610fe4565b7f000000000000000000000000000000000000000000000000000000000000000073ffffffffffffffffffffffffffffffffffffffff1633146107b3576040517f91ac5e4f0000000000000000000000000000000000000000000000000000000081523360048201526024015b60405180910390fd5b602087018035906107cd906107c8908a61222d565b611018565b14610824576107df602088018861222d565b6040517fc26bebcc00000000000000000000000000000000000000000000000000000000815263ffffffff9091166004820152602088013560248201526044016107aa565b6108338787878787878761106c565b50505050505050565b6108446110ad565b61084e82826110ff565b5050565b600260209081525f92835260408084209091529082529020805461087590612306565b80601f01602080910402602001604051908101604052809291908181526020018280546108a190612306565b80156108ec5780601f106108c3576101008083540402835291602001916108ec565b820191905f5260205f20905b8154815290600101906020018083116108cf57829003601f168201915b505050505081565b6108fc6110ad565b6109055f611153565b565b5f5f5f610913866111c7565b90505f6109767f00000000000000000000000000000000000000000000000000000000000000008388888080601f0160208091040260200160405190810160405280939291908181526020018383808284375f9201829052509250611373915050565b8051602090910151909890975095505050505050565b5f5b92915050565b73ffffffffffffffffffffffffffffffffffffffff811630145b949350505050565b6109be6110ad565b61084e6109cb82846123f6565b61145e565b63ffffffff84165f90815260026020908152604080832061ffff87168452909152812080546060929190610a0390612306565b80601f0160208091040260200160405190810160405280929190818152602001828054610a2f90612306565b8015610a7a5780601f10610a5157610100808354040283529160200191610a7a565b820191905f5260205f20905b815481529060010190602001808311610a5d57829003601f168201915b5050505050905080515f03610ac85783838080601f0160208091040260200160405190810160405280939291908181526020018383808284375f920191909152509294506109ae9350505050565b5f839003610ad75790506109ae565b60028310610b5457610b1d84848080601f0160208091040260200160405190810160405280939291908181526020018383808284375f9201919091525061156a92505050565b80610b2b8460028188612552565b604051602001610b3d93929190612590565b6040516020818303038152906040529150506109ae565b83836040517f9a6d49cd0000000000000000000000000000000000000000000000000000000081526004016107aa9291906125ae565b610b926110ad565b6040517fca5eb5e100000000000000000000000000000000000000000000000000000000815273ffffffffffffffffffffffffffffffffffffffff82811660048301527f0000000000000000000000000000000000000000000000000000000000000000169063ca5eb5e1906024015f604051808303815f87803b158015610c18575f5ffd5b505af1158015610c2a573d5f5f3e3d5ffd5b5050505050565b610c39611e8c565b5f84815260086020526040902054421115610cb0576040517f08c379a000000000000000000000000000000000000000000000000000000000815260206004820152601060248201527f566f74696e672068617320656e6465640000000000000000000000000000000060448201526064016107aa565b5f84815260066020908152604080832033845290915290205460ff1615610d33576040517f08c379a000000000000000000000000000000000000000000000000000000000815260206004820152600d60248201527f416c726561647920766f7465640000000000000000000000000000000000000060448201526064016107aa565b5f8481526007602052604090205480610da8576040517f08c379a000000000000000000000000000000000000000000000000000000000815260206004820152601d60248201527f50726f706f73616c204964206973206e6f74207265676973746572656400000060448201526064016107aa565b80421015610e12576040517f08c379a000000000000000000000000000000000000000000000000000000000815260206004820152601a60248201527f566f74696e6720686173206e6f7420737461727465642079657400000000000060448201526064016107aa565b5f610e1c826111c7565b90505f610e6363ffffffff8388888080601f0160208091040260200160405190810160405280939291908181526020018383808284375f9201829052509250611373915050565b8051909150341015610e73575f5ffd5b610ea763ffffffff83610e8c63ffffffff5f8b8b6109d0565b60405180604001604052803481526020015f815250336115af565b60408051808201825289815233602080830182815285515f908152600383528590209351845551600190930180547fffffffffffffffffffffffff00000000000000000000000000000000000000001673ffffffffffffffffffffffffffffffffffffffff90941693909317909255835183519081529182018b9052918101919091529094507f26830caabe5f3c663b8babf5f60d41260a90b6632024a9a7c045c781d0d757c19060600160405180910390a15050509392505050565b610f6c6110ad565b61084e8282610f7b575f6110ff565b306110ff565b610f896110ad565b73ffffffffffffffffffffffffffffffffffffffff8116610fd8576040517f1e4fbdf70000000000000000000000000000000000000000000000000000000081525f60048201526024016107aa565b610fe181611153565b50565b5f602082018035906001908390610ffb908661222d565b63ffffffff16815260208101919091526040015f20541492915050565b63ffffffff81165f908152600160205260408120548061098e576040517ff6ff4fb700000000000000000000000000000000000000000000000000000000815263ffffffff841660048201526024016107aa565b63fffff9be61107e602089018961222d565b63ffffffff16111561109e57611099878787878787876116c2565b610833565b6108338787878787878761194b565b5f5473ffffffffffffffffffffffffffffffffffffffff163314610905576040517f118cdaa70000000000000000000000000000000000000000000000000000000081523360048201526024016107aa565b63ffffffff82165f81815260016020908152604091829020849055815192835282018390527f238399d427b947898edb290f5ff0f9109849b1c3ba196a42e35f00c50a54b98b910160405180910390a15050565b5f805473ffffffffffffffffffffffffffffffffffffffff8381167fffffffffffffffffffffffff0000000000000000000000000000000000000000831681178455604051919092169283917f8be0079c531659141344cd1fd0a4f28419497f9722a3daafe3b4186f6b6457e09190a35050565b6040805133602482015260448082018490528251808303909101815260649091018252602080820180517bffffffffffffffffffffffffffffffffffffffffffffffffffffffff167f3a46b1a800000000000000000000000000000000000000000000000000000000179052825160018082528185019094526060935f9282015b6040805160e0810182525f808252602080830182905292820181905260608083018290526080830182905260a083019190915260c082015282527fffffffffffffffffffffffffffffffffffffffffffffffffffffffffffffffff9092019101816112485750506040805160e0810182525f8082527f000000000000000000000000000000000000000000000000000000000000000063ffffffff1660208301529181018290524267ffffffffffffffff166060820152600f60808201527f000000000000000000000000000000000000000000000000000000000000000073ffffffffffffffffffffffffffffffffffffffff1660a082015260c0810185905282519293509183919061135e5761135e6125fa565b60200260200101819052506109ae5f82611a39565b604080518082019091525f80825260208201527f000000000000000000000000000000000000000000000000000000000000000073ffffffffffffffffffffffffffffffffffffffff1663ddc28c586040518060a001604052808863ffffffff1681526020016113e289611018565b8152602001878152602001868152602001851515815250306040518363ffffffff1660e01b8152600401611417929190612627565b6040805180830381865afa158015611431573d5f5f3e3d5ffd5b505050506040513d601f19601f820116820180604052508101906114559190612717565b95945050505050565b5f5b815181101561152f5761148f82828151811061147e5761147e6125fa565b60200260200101516040015161156a565b8181815181106114a1576114a16125fa565b60200260200101516040015160025f8484815181106114c2576114c26125fa565b60200260200101515f015163ffffffff1663ffffffff1681526020019081526020015f205f8484815181106114f9576114f96125fa565b60200260200101516020015161ffff1661ffff1681526020019081526020015f209081611526919061277a565b50600101611460565b507fbe4864a8e820971c0247f5992e2da559595f7bf076a21cb5928d443d2a13b6748160405161155f9190612891565b60405180910390a150565b600281015161ffff811660031461084e57816040517f9a6d49cd0000000000000000000000000000000000000000000000000000000081526004016107aa91906120b3565b6115b7611e8c565b5f6115c4845f0151611afe565b6020850151909150156115de576115de8460200151611b3e565b7f000000000000000000000000000000000000000000000000000000000000000073ffffffffffffffffffffffffffffffffffffffff16632637a450826040518060a001604052808b63ffffffff16815260200161163b8c611018565b81526020018a81526020018981526020015f8960200151111515815250866040518463ffffffff1660e01b8152600401611676929190612627565b60806040518083038185885af1158015611692573d5f5f3e3d5ffd5b50505050506040513d601f19601f820116820180604052508101906116b7919061293d565b979650505050505050565b5f86815260036020908152604080832081518083018352815480825260019092015473ffffffffffffffffffffffffffffffffffffffff90811682860190815292865260068552838620925116855292529091205460ff1615611781576040517f08c379a000000000000000000000000000000000000000000000000000000000815260206004820152600d60248201527f416c726561647920766f7465640000000000000000000000000000000000000060448201526064016107aa565b5f61178e868801886120cc565b90505f81116117f9576040517f08c379a000000000000000000000000000000000000000000000000000000000815260206004820152601460248201527f566f74696e6720706f776572206973207a65726f00000000000000000000000060448201526064016107aa565b81515f9081526004602090815260408083208286015173ffffffffffffffffffffffffffffffffffffffff16845282528083208490558451835260059091528120805483929061184a908490612993565b909155505081515f908152600660209081526040808320828601805173ffffffffffffffffffffffffffffffffffffffff908116865291845282852080547fffffffffffffffffffffffffffffffffffffffffffffffffffffffffffffff0016600190811790915590518751845190815294850191909152918301859052608060608401819052830193909352909116907fb8e138887d0aa13bab447e82de9d5c1777041ecd21ca36ba824ff1e6c07ddda49060a00160405180910390a25050505f9485525050600360205250506040812090815560010180547fffffffffffffffffffffffff000000000000000000000000000000000000000016905550565b5f808061195a878901896129cb565b5f838152600760205260409020549295509093509150156119d7576040517f08c379a000000000000000000000000000000000000000000000000000000000815260206004820152601460248201527f536e617073686f7420616c72656164792073657400000000000000000000000060448201526064016107aa565b5f8381526007602090815260408083208590556008825291829020839055815184815290810183905284917f4fb967f090b1c393668e0162261d7cef64781aa8645abf2dce55218b8565ae11910160405180910390a250505050505050505050565b60605f600184611a498551611c5d565b6040517fffff00000000000000000000000000000000000000000000000000000000000060f094851b8116602083015292841b83166022820152921b166024820152602601604080517fffffffffffffffffffffffffffffffffffffffffffffffffffffffffffffffe081840301815291905290505f5b8351811015611af657611aec82858381518110611adf57611adf6125fa565b6020026020010151611ca4565b9150600101611ac0565b509392505050565b5f813414611b3a576040517f9f7041200000000000000000000000000000000000000000000000000000000081523460048201526024016107aa565b5090565b5f7f000000000000000000000000000000000000000000000000000000000000000073ffffffffffffffffffffffffffffffffffffffff1663e4fe1d946040518163ffffffff1660e01b8152600401602060405180830381865afa158015611ba8573d5f5f3e3d5ffd5b505050506040513d601f19601f82011682018060405250810190611bcc91906129f4565b905073ffffffffffffffffffffffffffffffffffffffff8116611c1b576040517f5373352a00000000000000000000000000000000000000000000000000000000815260040160405180910390fd5b61084e73ffffffffffffffffffffffffffffffffffffffff8216337f000000000000000000000000000000000000000000000000000000000000000085611d52565b5f61ffff821115611b3a576040517f6dfcc65000000000000000000000000000000000000000000000000000000000815260106004820152602481018390526044016107aa565b60605f836001845f01516001611cca8760c00151516023611cc59190612993565b611c5d565b602080890151604051611ce297969594939201612a0f565b604080517fffffffffffffffffffffffffffffffffffffffffffffffffffffffffffffffe0818403018152828252908501516060860151608087015160a088015160c0890151949650611d3a95879590602001612ab8565b60405160208183030381529060405291505092915050565b6040805173ffffffffffffffffffffffffffffffffffffffff85811660248301528416604482015260648082018490528251808303909101815260849091019091526020810180517bffffffffffffffffffffffffffffffffffffffffffffffffffffffff167f23b872dd00000000000000000000000000000000000000000000000000000000179052611de7908590611ded565b50505050565b5f5f60205f8451602086015f885af180611e0c576040513d5f823e3d81fd5b50505f513d91508115611e23578060011415611e3d565b73ffffffffffffffffffffffffffffffffffffffff84163b155b15611de7576040517f5274afe700000000000000000000000000000000000000000000000000000000815273ffffffffffffffffffffffffffffffffffffffff851660048201526024016107aa565b60405180606001604052805f81526020015f67ffffffffffffffff168152602001611ec860405180604001604052805f81526020015f81525090565b905290565b5f60608284031215611edd575f5ffd5b50919050565b5f5f83601f840112611ef3575f5ffd5b50813567ffffffffffffffff811115611f0a575f5ffd5b602083019150836020828501011115611f21575f5ffd5b9250929050565b73ffffffffffffffffffffffffffffffffffffffff81168114610fe1575f5ffd5b5f5f5f5f5f5f5f60e0888a031215611f5f575f5ffd5b611f698989611ecd565b965060608801359550608088013567ffffffffffffffff811115611f8b575f5ffd5b611f978a828b01611ee3565b90965094505060a0880135611fab81611f28565b925060c088013567ffffffffffffffff811115611fc6575f5ffd5b611fd28a828b01611ee3565b989b979a50959850939692959293505050565b803563ffffffff81168114611ff8575f5ffd5b919050565b5f5f6040838503121561200e575f5ffd5b61201783611fe5565b946020939093013593505050565b803561ffff81168114611ff8575f5ffd5b5f5f60408385031215612047575f5ffd5b61205083611fe5565b915061205e60208401612025565b90509250929050565b5f81518084528060208401602086015e5f6020828601015260207fffffffffffffffffffffffffffffffffffffffffffffffffffffffffffffffe0601f83011685010191505092915050565b602081525f6120c56020830184612067565b9392505050565b5f602082840312156120dc575f5ffd5b5035919050565b5f5f5f604084860312156120f5575f5ffd5b83359250602084013567ffffffffffffffff811115612112575f5ffd5b61211e86828701611ee3565b9497909650939450505050565b5f5f5f5f60a0858703121561213e575f5ffd5b6121488686611ecd565b9350606085013567ffffffffffffffff811115612163575f5ffd5b61216f87828801611ee3565b909450925050608085013561218381611f28565b939692955090935050565b5f5f6040838503121561219f575f5ffd5b8235915060208301356121b181611f28565b809150509250929050565b5f5f602083850312156121cd575f5ffd5b823567ffffffffffffffff8111156121e3575f5ffd5b8301601f810185136121f3575f5ffd5b803567ffffffffffffffff811115612209575f5ffd5b8560208260051b840101111561221d575f5ffd5b6020919091019590945092505050565b5f6020828403121561223d575f5ffd5b6120c582611fe5565b5f5f5f5f60608587031215612259575f5ffd5b61226285611fe5565b935061227060208601612025565b9250604085013567ffffffffffffffff81111561228b575f5ffd5b61229787828801611ee3565b95989497509550505050565b5f602082840312156122b3575f5ffd5b81356120c581611f28565b5f5f604083850312156122cf575f5ffd5b6122d883611fe5565b9150602083013580151581146121b1575f5ffd5b5f606082840312156122fc575f5ffd5b6120c58383611ecd565b600181811c9082168061231a57607f821691505b602082108103611edd577f4e487b71000000000000000000000000000000000000000000000000000000005f52602260045260245ffd5b7f4e487b71000000000000000000000000000000000000000000000000000000005f52604160045260245ffd5b6040516060810167ffffffffffffffff811182821017156123a1576123a1612351565b60405290565b604051601f82017fffffffffffffffffffffffffffffffffffffffffffffffffffffffffffffffe016810167ffffffffffffffff811182821017156123ee576123ee612351565b604052919050565b5f67ffffffffffffffff83111561240f5761240f612351565b8260051b61241f602082016123a7565b84815290830190602081019036831115612437575f5ffd5b845b8381101561254857803567ffffffffffffffff811115612457575f5ffd5b86016060368290031215612469575f5ffd5b61247161237e565b61247a82611fe5565b815261248860208301612025565b6020820152604082013567ffffffffffffffff8111156124a6575f5ffd5b919091019036601f8301126124b9575f5ffd5b813567ffffffffffffffff8111156124d3576124d3612351565b61250460207fffffffffffffffffffffffffffffffffffffffffffffffffffffffffffffffe0601f840116016123a7565b818152366020838601011115612518575f5ffd5b816020850160208301375f6020838301015280604084015250508085525050602083019250602081019050612439565b5095945050505050565b5f5f85851115612560575f5ffd5b8386111561256c575f5ffd5b5050820193919092039150565b5f81518060208401855e5f93019283525090919050565b5f61259b8286612579565b838582375f930192835250909392505050565b60208152816020820152818360408301375f818301604090810191909152601f9092017fffffffffffffffffffffffffffffffffffffffffffffffffffffffffffffffe0160101919050565b7f4e487b71000000000000000000000000000000000000000000000000000000005f52603260045260245ffd5b6040815263ffffffff8351166040820152602083015160608201525f604084015160a0608084015261265c60e0840182612067565b905060608501517fffffffffffffffffffffffffffffffffffffffffffffffffffffffffffffffc08483030160a08501526126978282612067565b60809690960151151560c085015250505073ffffffffffffffffffffffffffffffffffffffff9190911660209091015290565b5f604082840312156126da575f5ffd5b6040805190810167ffffffffffffffff811182821017156126fd576126fd612351565b604052825181526020928301519281019290925250919050565b5f60408284031215612727575f5ffd5b6120c583836126ca565b601f82111561277557805f5260205f20601f840160051c810160208510156127565750805b601f840160051c820191505b81811015610c2a575f8155600101612762565b505050565b815167ffffffffffffffff81111561279457612794612351565b6127a8816127a28454612306565b84612731565b6020601f8211600181146127f9575f83156127c35750848201515b7fffffffffffffffffffffffffffffffffffffffffffffffffffffffffffffffff600385901b1c1916600184901b178455610c2a565b5f848152602081207fffffffffffffffffffffffffffffffffffffffffffffffffffffffffffffffe08516915b828110156128465787850151825560209485019460019092019101612826565b508482101561288257868401517fffffffffffffffffffffffffffffffffffffffffffffffffffffffffffffffff600387901b60f8161c191681555b50505050600190811b01905550565b5f602082016020835280845180835260408501915060408160051b8601019250602086015f5b82811015612931577fffffffffffffffffffffffffffffffffffffffffffffffffffffffffffffffc0878603018452815163ffffffff815116865261ffff6020820151166020870152604081015190506060604087015261291b6060870182612067565b95505060209384019391909101906001016128b7565b50929695505050505050565b5f608082840312801561294e575f5ffd5b5061295761237e565b82518152602083015167ffffffffffffffff81168114612975575f5ffd5b602082015261298784604085016126ca565b60408201529392505050565b8082018082111561098e577f4e487b71000000000000000000000000000000000000000000000000000000005f52601160045260245ffd5b5f5f5f606084860312156129dd575f5ffd5b505081359360208301359350604090920135919050565b5f60208284031215612a04575f5ffd5b81516120c581611f28565b5f612a1a8289612579565b60f89790971b7fff00000000000000000000000000000000000000000000000000000000000000168752505060f093841b7fffff000000000000000000000000000000000000000000000000000000000000908116600187015292841b83166003860152921b16600583015260e01b7fffffffff00000000000000000000000000000000000000000000000000000000166007820152600b01919050565b5f612ac38289612579565b87151560f81b81527fffffffffffffffff0000000000000000000000000000000000000000000000008760c01b1660018201527fffff0000000000000000000000000000000000000000000000000000000000008660f01b1660098201527fffffffffffffffffffffffffffffffffffffffff0000000000000000000000008560601b16600b820152612b59601f820185612579565b999850505050505050505056fea26469706673582212205fa97069367df558296bc8e56543b929792fe89b4b425ea6343b1a1079c3b57c64736f6c634300081e0033","linkReferences":{}},"methodIdentifiers":{"READ_CHANNEL()":"3859d937","READ_CHANNEL_EID_THRESHOLD()":"e8feb143","READ_MSG_TYPE()":"c1bd92e3","allowInitializePath((uint32,bytes32,uint64))":"ff7bd03d","combineOptions(uint32,uint16,bytes)":"bc70b354","endpoint()":"5e280f11","enforcedOptions(uint32,uint16)":"5535d461","getVoteWeight(bytes32,address)":"833fc040","getVotesLzRead(bytes32,bytes)":"e8d3c166","governorChainId()":"d0473d4a","hasVoted(bytes32,address)":"aadc3b72","isComposeMsgSender((uint32,bytes32,uint64),bytes,address)":"82413eac","lzReceive((uint32,bytes32,uint64),bytes32,bytes,address,bytes)":"13137d65","nextNonce(uint32,bytes32)":"7d25a05e","oAppVersion()":"17442b70","owner()":"8da5cb5b","peers(uint32)":"bb0b6a53","pendingVotes(bytes32)":"7a65adba","proposalSnapshotEndTimes(bytes32)":"b1699617","proposalSnapshots(bytes32)":"6fde063c","quote(uint256,bytes)":"77d2b771","renounceOwnership()":"715018a6","setDelegate(address)":"ca5eb5e1","setEnforcedOptions((uint32,uint16,bytes)[])":"b98bd070","setPeer(uint32,bytes32)":"3400288b","setReadChannel(uint32,bool)":"f0a9e481","totalNumVotes(bytes32)":"d94a4061","transferOwnership(address)":"f2fde38b","voteWeight(bytes32,address)":"89ebb563","votingToken()":"b0340123"},"id":46}